{
  "contractName": "SolnSquareVerifier",
  "abi": [
    {
      "inputs": [
        {
          "internalType": "string",
          "name": "name",
          "type": "string"
        },
        {
          "internalType": "string",
          "name": "symbol",
          "type": "string"
        }
      ],
      "stateMutability": "nonpayable",
      "type": "constructor"
    },
    {
      "anonymous": false,
      "inputs": [
        {
          "indexed": true,
          "internalType": "address",
          "name": "owner",
          "type": "address"
        },
        {
          "indexed": true,
          "internalType": "address",
          "name": "approved",
          "type": "address"
        },
        {
          "indexed": true,
          "internalType": "uint256",
          "name": "tokenId",
          "type": "uint256"
        }
      ],
      "name": "Approval",
      "type": "event"
    },
    {
      "anonymous": false,
      "inputs": [
        {
          "indexed": true,
          "internalType": "address",
          "name": "owner",
          "type": "address"
        },
        {
          "indexed": true,
          "internalType": "address",
          "name": "operator",
          "type": "address"
        },
        {
          "indexed": false,
          "internalType": "bool",
          "name": "approved",
          "type": "bool"
        }
      ],
      "name": "ApprovalForAll",
      "type": "event"
    },
    {
      "anonymous": false,
      "inputs": [
        {
          "indexed": false,
          "internalType": "bool",
          "name": "isPaused",
          "type": "bool"
        },
        {
          "indexed": false,
          "internalType": "address",
          "name": "sender",
          "type": "address"
        }
      ],
      "name": "Paused",
      "type": "event"
    },
    {
      "anonymous": false,
      "inputs": [
        {
          "indexed": false,
          "internalType": "uint256",
          "name": "Index",
          "type": "uint256"
        },
        {
          "indexed": true,
          "internalType": "address",
          "name": "Address",
          "type": "address"
        }
      ],
      "name": "SolutionAdded",
      "type": "event"
    },
    {
      "anonymous": false,
      "inputs": [
        {
          "indexed": true,
          "internalType": "address",
          "name": "from",
          "type": "address"
        },
        {
          "indexed": true,
          "internalType": "address",
          "name": "to",
          "type": "address"
        },
        {
          "indexed": true,
          "internalType": "uint256",
          "name": "tokenId",
          "type": "uint256"
        }
      ],
      "name": "Transfer",
      "type": "event"
    },
    {
      "anonymous": false,
      "inputs": [
        {
          "indexed": false,
          "internalType": "bool",
          "name": "isPaused",
          "type": "bool"
        },
        {
          "indexed": false,
          "internalType": "address",
          "name": "sender",
          "type": "address"
        }
      ],
      "name": "Unpaused",
      "type": "event"
    },
    {
      "anonymous": false,
      "inputs": [
        {
          "indexed": true,
          "internalType": "uint256",
          "name": "tokenId",
          "type": "uint256"
        },
        {
          "indexed": false,
          "internalType": "address",
          "name": "owner",
          "type": "address"
        }
      ],
      "name": "minted",
      "type": "event"
    },
    {
      "inputs": [
        {
          "internalType": "bytes32",
          "name": "_myid",
          "type": "bytes32"
        },
        {
          "internalType": "string",
          "name": "_result",
          "type": "string"
        }
      ],
      "name": "__callback",
      "outputs": [],
      "stateMutability": "pure",
      "type": "function",
      "constant": true
    },
    {
      "inputs": [
        {
          "internalType": "bytes32",
          "name": "_myid",
          "type": "bytes32"
        },
        {
          "internalType": "string",
          "name": "_result",
          "type": "string"
        },
        {
          "internalType": "bytes",
          "name": "_proof",
          "type": "bytes"
        }
      ],
      "name": "__callback",
      "outputs": [],
      "stateMutability": "pure",
      "type": "function",
      "constant": true
    },
    {
      "inputs": [
        {
          "internalType": "address",
          "name": "to",
          "type": "address"
        },
        {
          "internalType": "uint256",
          "name": "tokenId",
          "type": "uint256"
        }
      ],
      "name": "approve",
      "outputs": [],
      "stateMutability": "nonpayable",
      "type": "function"
    },
    {
      "inputs": [
        {
          "internalType": "address",
          "name": "owner",
          "type": "address"
        }
      ],
      "name": "balanceOf",
      "outputs": [
        {
          "internalType": "uint256",
          "name": "",
          "type": "uint256"
        }
      ],
      "stateMutability": "view",
      "type": "function",
      "constant": true
    },
    {
      "inputs": [
        {
          "internalType": "uint256",
          "name": "tokenId",
          "type": "uint256"
        }
      ],
      "name": "getApproved",
      "outputs": [
        {
          "internalType": "address",
          "name": "",
          "type": "address"
        }
      ],
      "stateMutability": "view",
      "type": "function",
      "constant": true
    },
    {
      "inputs": [],
      "name": "getBaseTokenURI",
      "outputs": [
        {
          "internalType": "string",
          "name": "",
          "type": "string"
        }
      ],
      "stateMutability": "view",
      "type": "function",
      "constant": true
    },
    {
      "inputs": [],
      "name": "getName",
      "outputs": [
        {
          "internalType": "string",
          "name": "",
          "type": "string"
        }
      ],
      "stateMutability": "view",
      "type": "function",
      "constant": true
    },
    {
      "inputs": [],
      "name": "getSymbol",
      "outputs": [
        {
          "internalType": "string",
          "name": "",
          "type": "string"
        }
      ],
      "stateMutability": "view",
      "type": "function",
      "constant": true
    },
    {
      "inputs": [
        {
          "internalType": "address",
          "name": "owner",
          "type": "address"
        },
        {
          "internalType": "address",
          "name": "operator",
          "type": "address"
        }
      ],
      "name": "isApprovedForAll",
      "outputs": [
        {
          "internalType": "bool",
          "name": "",
          "type": "bool"
        }
      ],
      "stateMutability": "view",
      "type": "function",
      "constant": true
    },
    {
      "inputs": [
        {
          "internalType": "address",
          "name": "to",
          "type": "address"
        },
        {
          "internalType": "uint256",
          "name": "tokenId",
          "type": "uint256"
        }
      ],
      "name": "mint",
      "outputs": [
        {
          "internalType": "bool",
          "name": "",
          "type": "bool"
        }
      ],
      "stateMutability": "nonpayable",
      "type": "function"
    },
    {
      "inputs": [
        {
          "internalType": "uint256",
          "name": "tokenId",
          "type": "uint256"
        }
      ],
      "name": "ownerOf",
      "outputs": [
        {
          "internalType": "address",
          "name": "",
          "type": "address"
        }
      ],
      "stateMutability": "view",
      "type": "function",
      "constant": true
    },
    {
      "inputs": [
        {
          "internalType": "address",
          "name": "from",
          "type": "address"
        },
        {
          "internalType": "address",
          "name": "to",
          "type": "address"
        },
        {
          "internalType": "uint256",
          "name": "tokenId",
          "type": "uint256"
        }
      ],
      "name": "safeTransferFrom",
      "outputs": [],
      "stateMutability": "nonpayable",
      "type": "function"
    },
    {
      "inputs": [
        {
          "internalType": "address",
          "name": "from",
          "type": "address"
        },
        {
          "internalType": "address",
          "name": "to",
          "type": "address"
        },
        {
          "internalType": "uint256",
          "name": "tokenId",
          "type": "uint256"
        },
        {
          "internalType": "bytes",
          "name": "_data",
          "type": "bytes"
        }
      ],
      "name": "safeTransferFrom",
      "outputs": [],
      "stateMutability": "nonpayable",
      "type": "function"
    },
    {
      "inputs": [
        {
          "internalType": "address",
          "name": "to",
          "type": "address"
        },
        {
          "internalType": "bool",
          "name": "approved",
          "type": "bool"
        }
      ],
      "name": "setApprovalForAll",
      "outputs": [],
      "stateMutability": "nonpayable",
      "type": "function"
    },
    {
      "inputs": [
        {
          "internalType": "bool",
          "name": "mode",
          "type": "bool"
        }
      ],
      "name": "setPaued",
      "outputs": [],
      "stateMutability": "nonpayable",
      "type": "function"
    },
    {
      "inputs": [
        {
          "internalType": "bytes4",
          "name": "interfaceId",
          "type": "bytes4"
        }
      ],
      "name": "supportsInterface",
      "outputs": [
        {
          "internalType": "bool",
          "name": "",
          "type": "bool"
        }
      ],
      "stateMutability": "view",
      "type": "function",
      "constant": true
    },
    {
      "inputs": [
        {
          "internalType": "uint256",
          "name": "index",
          "type": "uint256"
        }
      ],
      "name": "tokenByIndex",
      "outputs": [
        {
          "internalType": "uint256",
          "name": "",
          "type": "uint256"
        }
      ],
      "stateMutability": "view",
      "type": "function",
      "constant": true
    },
    {
      "inputs": [
        {
          "internalType": "address",
          "name": "owner",
          "type": "address"
        },
        {
          "internalType": "uint256",
          "name": "index",
          "type": "uint256"
        }
      ],
      "name": "tokenOfOwnerByIndex",
      "outputs": [
        {
          "internalType": "uint256",
          "name": "",
          "type": "uint256"
        }
      ],
      "stateMutability": "view",
      "type": "function",
      "constant": true
    },
    {
      "inputs": [
        {
          "internalType": "uint256",
          "name": "tokenId",
          "type": "uint256"
        }
      ],
      "name": "tokenURI",
      "outputs": [
        {
          "internalType": "string",
          "name": "",
          "type": "string"
        }
      ],
      "stateMutability": "view",
      "type": "function",
      "constant": true
    },
    {
      "inputs": [],
      "name": "totalSupply",
      "outputs": [
        {
          "internalType": "uint256",
          "name": "",
          "type": "uint256"
        }
      ],
      "stateMutability": "view",
      "type": "function",
      "constant": true
    },
    {
      "inputs": [
        {
          "internalType": "address",
          "name": "from",
          "type": "address"
        },
        {
          "internalType": "address",
          "name": "to",
          "type": "address"
        },
        {
          "internalType": "uint256",
          "name": "tokenId",
          "type": "uint256"
        }
      ],
      "name": "transferFrom",
      "outputs": [],
      "stateMutability": "nonpayable",
      "type": "function"
    },
    {
      "inputs": [
        {
          "internalType": "address",
          "name": "newOwner",
          "type": "address"
        }
      ],
      "name": "transferOwnership",
      "outputs": [],
      "stateMutability": "nonpayable",
      "type": "function"
    },
    {
      "inputs": [
        {
          "internalType": "uint256[2]",
          "name": "a",
          "type": "uint256[2]"
        },
        {
          "internalType": "uint256[2][2]",
          "name": "b",
          "type": "uint256[2][2]"
        },
        {
          "internalType": "uint256[2]",
          "name": "c",
          "type": "uint256[2]"
        },
        {
          "internalType": "uint256[2]",
          "name": "input",
          "type": "uint256[2]"
        }
      ],
      "name": "verifyTx",
      "outputs": [
        {
          "internalType": "bool",
          "name": "r",
          "type": "bool"
        }
      ],
      "stateMutability": "view",
      "type": "function",
      "constant": true
    },
    {
      "inputs": [],
      "name": "viewOwner",
      "outputs": [
        {
          "internalType": "address",
          "name": "",
          "type": "address"
        }
      ],
      "stateMutability": "view",
      "type": "function",
      "constant": true
    },
    {
      "inputs": [
        {
          "internalType": "uint256[2]",
          "name": "A",
          "type": "uint256[2]"
        },
        {
          "internalType": "uint256[2][2]",
          "name": "B",
          "type": "uint256[2][2]"
        },
        {
          "internalType": "uint256[2]",
          "name": "C",
          "type": "uint256[2]"
        },
        {
          "internalType": "uint256[2]",
          "name": "input",
          "type": "uint256[2]"
        }
      ],
      "name": "addSolution",
      "outputs": [],
      "stateMutability": "nonpayable",
      "type": "function"
    },
    {
      "inputs": [
        {
          "internalType": "address",
          "name": "to",
          "type": "address"
        },
        {
          "internalType": "uint256",
          "name": "tokenId",
          "type": "uint256"
        },
        {
          "internalType": "uint256[2]",
          "name": "a",
          "type": "uint256[2]"
        },
        {
          "internalType": "uint256[2][2]",
          "name": "b",
          "type": "uint256[2][2]"
        },
        {
          "internalType": "uint256[2]",
          "name": "c",
          "type": "uint256[2]"
        },
        {
          "internalType": "uint256[2]",
          "name": "input",
          "type": "uint256[2]"
        }
      ],
      "name": "mintVerified",
      "outputs": [
        {
          "internalType": "bool",
          "name": "",
          "type": "bool"
        }
      ],
      "stateMutability": "nonpayable",
      "type": "function"
    }
  ],
  "bytecode": "0x608060405260006015553480156200001657600080fd5b50604051620050b8380380620050b883398181016040528101906200003c919062000459565b818181816040518060600160405280603f815260200162005079603f9139336000806101000a81548173ffffffffffffffffffffffffffffffffffffffff021916908373ffffffffffffffffffffffffffffffffffffffff160217905550620000b26301ffc9a760e01b6200016c60201b60201c565b60008060146101000a81548160ff021916908315150217905550620000e46380ac58cd60e01b6200016c60201b60201c565b620000fc63780e9d6360e01b6200016c60201b60201c565b82600f9080519060200190620001149291906200020c565b5081601090805190602001906200012d9291906200020c565b508060119080519060200190620001469291906200020c565b506200015f635b5e139f60e01b6200016c60201b60201c565b5050505050505062000543565b63ffffffff60e01b817bffffffffffffffffffffffffffffffffffffffffffffffffffffffff19161415620001a057600080fd5b6001806000837bffffffffffffffffffffffffffffffffffffffffffffffffffffffff19167bffffffffffffffffffffffffffffffffffffffffffffffffffffffff1916815260200190815260200160002060006101000a81548160ff02191690831515021790555050565b8280546200021a906200050d565b90600052602060002090601f0160209004810192826200023e57600085556200028a565b82601f106200025957805160ff19168380011785556200028a565b828001600101855582156200028a579182015b82811115620002895782518255916020019190600101906200026c565b5b5090506200029991906200029d565b5090565b5b80821115620002b85760008160009055506001016200029e565b5090565b6000604051905090565b600080fd5b600080fd5b600080fd5b600080fd5b6000601f19601f8301169050919050565b7f4e487b7100000000000000000000000000000000000000000000000000000000600052604160045260246000fd5b6200032582620002da565b810181811067ffffffffffffffff82111715620003475762000346620002eb565b5b80604052505050565b60006200035c620002bc565b90506200036a82826200031a565b919050565b600067ffffffffffffffff8211156200038d576200038c620002eb565b5b6200039882620002da565b9050602081019050919050565b60005b83811015620003c5578082015181840152602081019050620003a8565b83811115620003d5576000848401525b50505050565b6000620003f2620003ec846200036f565b62000350565b905082815260208101848484011115620004115762000410620002d5565b5b6200041e848285620003a5565b509392505050565b600082601f8301126200043e576200043d620002d0565b5b815162000450848260208601620003db565b91505092915050565b60008060408385031215620004735762000472620002c6565b5b600083015167ffffffffffffffff811115620004945762000493620002cb565b5b620004a28582860162000426565b925050602083015167ffffffffffffffff811115620004c657620004c5620002cb565b5b620004d48582860162000426565b9150509250929050565b7f4e487b7100000000000000000000000000000000000000000000000000000000600052602260045260246000fd5b600060028204905060018216806200052657607f821691505b602082108114156200053d576200053c620004de565b5b50919050565b614b2680620005536000396000f3fe608060405234801561001057600080fd5b506004361061018e5760003560e01c8063621e9ec0116100de578063bc677b4611610097578063e985e9c511610071578063e985e9c5146104cd578063ed93b13b146104fd578063f2fde38b14610519578063f76b4431146105355761018e565b8063bc677b4614610461578063bdc32be01461047f578063c87b56dd1461049d5761018e565b8063621e9ec0146103695780636352211e1461039957806370a08231146103c9578063a22cb465146103f9578063b8395aec14610415578063b88d4fde146104455761018e565b806323b872dd1161014b57806338bbfa501161012557806338bbfa50146102d157806340c10f19146102ed57806342842e0e1461031d5780634f6ccce7146103395761018e565b806323b872dd1461026957806327dc297e146102855780632f745c59146102a15761018e565b806301ffc9a714610193578063081812fc146101c3578063095ea7b3146101f3578063150704011461020f57806317d7de7c1461022d57806318160ddd1461024b575b600080fd5b6101ad60048036038101906101a89190613662565b610551565b6040516101ba91906136aa565b60405180910390f35b6101dd60048036038101906101d891906136fb565b6105b9565b6040516101ea9190613769565b60405180910390f35b61020d600480360381019061020891906137b0565b6105fb565b005b6102176107c7565b6040516102249190613889565b60405180910390f35b610235610859565b6040516102429190613889565b60405180910390f35b6102536108eb565b60405161026091906138ba565b60405180910390f35b610283600480360381019061027e91906138d5565b6108f8565b005b61029f600480360381019061029a9190613a93565b61091b565b005b6102bb60048036038101906102b691906137b0565b610977565b6040516102c891906138ba565b60405180910390f35b6102eb60048036038101906102e69190613b90565b6109f1565b005b610307600480360381019061030291906137b0565b6109f6565b60405161031491906136aa565b60405180910390f35b610337600480360381019061033291906138d5565b610ac4565b005b610353600480360381019061034e91906136fb565b610ae4565b60405161036091906138ba565b60405180910390f35b610383600480360381019061037e9190613d82565b610b1f565b60405161039091906136aa565b60405180910390f35b6103b360048036038101906103ae91906136fb565b610d99565b6040516103c09190613769565b60405180910390f35b6103e360048036038101906103de9190613deb565b610ddb565b6040516103f091906138ba565b60405180910390f35b610413600480360381019061040e9190613e44565b610e30565b005b61042f600480360381019061042a9190613e84565b610f66565b60405161043c91906136aa565b60405180910390f35b61045f600480360381019061045a9190613f14565b6111cd565b005b6104696111f3565b6040516104769190613769565b60405180910390f35b61048761121c565b6040516104949190613889565b60405180910390f35b6104b760048036038101906104b291906136fb565b6112ae565b6040516104c49190613889565b60405180910390f35b6104e760048036038101906104e29190613f97565b611365565b6040516104f491906136aa565b60405180910390f35b61051760048036038101906105129190613fd7565b6113f9565b005b610533600480360381019061052e9190613deb565b61146e565b005b61054f600480360381019061054a9190613d82565b611509565b005b600060016000837bffffffffffffffffffffffffffffffffffffffffffffffffffffffff19167bffffffffffffffffffffffffffffffffffffffffffffffffffffffff1916815260200190815260200160002060009054906101000a900460ff169050919050565b6000806003600084815260200190815260200160002060009054906101000a900473ffffffffffffffffffffffffffffffffffffffff16905080915050919050565b8173ffffffffffffffffffffffffffffffffffffffff1661061b82610d99565b73ffffffffffffffffffffffffffffffffffffffff161415610672576040517f08c379a000000000000000000000000000000000000000000000000000000000815260040161066990614076565b60405180910390fd5b3373ffffffffffffffffffffffffffffffffffffffff1661069282610d99565b73ffffffffffffffffffffffffffffffffffffffff1614806106c95750600115156106c56106bf83610d99565b33611365565b1515145b610708576040517f08c379a00000000000000000000000000000000000000000000000000000000081526004016106ff906140e2565b60405180910390fd5b816003600083815260200190815260200160002060006101000a81548173ffffffffffffffffffffffffffffffffffffffff021916908373ffffffffffffffffffffffffffffffffffffffff160217905550600061076582610d99565b9050818373ffffffffffffffffffffffffffffffffffffffff168273ffffffffffffffffffffffffffffffffffffffff167f8c5be1e5ebec7d5bd14f71427d1e84f3dd0314c0f7b2291e5b200ac8c7c3b92560405160405180910390a4505050565b6060601080546107d690614131565b80601f016020809104026020016040519081016040528092919081815260200182805461080290614131565b801561084f5780601f106108245761010080835404028352916020019161084f565b820191906000526020600020905b81548152906001019060200180831161083257829003601f168201915b5050505050905090565b6060600f805461086890614131565b80601f016020809104026020016040519081016040528092919081815260200182805461089490614131565b80156108e15780601f106108b6576101008083540402835291602001916108e1565b820191906000526020600020905b8154815290600101906020018083116108c457829003601f168201915b5050505050905090565b6000600880549050905090565b610902338261175c565b61090b57600080fd5b6109168383836117f9565b505050565b6109738282600067ffffffffffffffff81111561093b5761093a613968565b5b6040519080825280601f01601f19166020018201604052801561096d5781602001600182028036833780820191505090505b506109f1565b5050565b600061098283610ddb565b821061098d57600080fd5b600660008473ffffffffffffffffffffffffffffffffffffffff1673ffffffffffffffffffffffffffffffffffffffff16815260200190815260200160002082815481106109de576109dd614163565b5b9060005260206000200154905092915050565b505050565b60008060009054906101000a900473ffffffffffffffffffffffffffffffffffffffff1673ffffffffffffffffffffffffffffffffffffffff163373ffffffffffffffffffffffffffffffffffffffff1614610a5157600080fd5b60001515600060149054906101000a900460ff16151514610aa7576040517f08c379a0000000000000000000000000000000000000000000000000000000008152600401610a9e906141de565b60405180910390fd5b610ab1838361181d565b610aba8261183e565b6001905092915050565b610adf838383604051806020016040528060008152506111cd565b505050565b6000610aee6108eb565b8210610af957600080fd5b60088281548110610b0d57610b0c614163565b5b90600052602060002001549050919050565b6000610b29613411565b604051806040016040528087600060028110610b4857610b47614163565b5b6020020151815260200187600160028110610b6657610b65614163565b5b602002015181525081600001819052506040518060400160405280604051806040016040528088600060028110610ba057610b9f614163565b5b6020020151600060028110610bb857610bb7614163565b5b6020020151815260200188600060028110610bd657610bd5614163565b5b6020020151600160028110610bee57610bed614163565b5b60200201518152508152602001604051806040016040528088600160028110610c1a57610c19614163565b5b6020020151600060028110610c3257610c31614163565b5b6020020151815260200188600160028110610c5057610c4f614163565b5b6020020151600160028110610c6857610c67614163565b5b60200201518152508152508160200181905250604051806040016040528085600060028110610c9a57610c99614163565b5b6020020151815260200185600160028110610cb857610cb7614163565b5b602002015181525081604001819052506000600267ffffffffffffffff811115610ce557610ce4613968565b5b604051908082528060200260200182016040528015610d135781602001602082028036833780820191505090505b50905060005b6002811015610d6c57848160028110610d3557610d34614163565b5b6020020151828281518110610d4d57610d4c614163565b5b6020026020010181815250508080610d649061422d565b915050610d19565b506000610d79828461194c565b1415610d8a57600192505050610d91565b6000925050505b949350505050565b6000806002600084815260200190815260200160002060009054906101000a900473ffffffffffffffffffffffffffffffffffffffff16905080915050919050565b600080610e25600460008573ffffffffffffffffffffffffffffffffffffffff1673ffffffffffffffffffffffffffffffffffffffff168152602001908152602001600020611ae3565b905080915050919050565b3373ffffffffffffffffffffffffffffffffffffffff168273ffffffffffffffffffffffffffffffffffffffff161415610e6957600080fd5b80600560003373ffffffffffffffffffffffffffffffffffffffff1673ffffffffffffffffffffffffffffffffffffffff16815260200190815260200160002060008473ffffffffffffffffffffffffffffffffffffffff1673ffffffffffffffffffffffffffffffffffffffff16815260200190815260200160002060006101000a81548160ff0219169083151502179055508173ffffffffffffffffffffffffffffffffffffffff163373ffffffffffffffffffffffffffffffffffffffff167f17307eab39ab6107e8899845ad3d59bd9653f200f220920489ca2b5937696c3183604051610f5a91906136aa565b60405180910390a35050565b60008085858585604051602001610f80949392919061441f565b604051602081830303815290604052805190602001209050600073ffffffffffffffffffffffffffffffffffffffff166014600083815260200190815260200160002060010160009054906101000a900473ffffffffffffffffffffffffffffffffffffffff1673ffffffffffffffffffffffffffffffffffffffff16141561103e576040517f08c379a0000000000000000000000000000000000000000000000000000000008152600401611035906144b9565b60405180910390fd5b600015156014600083815260200190815260200160002060010160149054906101000a900460ff161515146110a8576040517f08c379a000000000000000000000000000000000000000000000000000000000815260040161109f9061454b565b60405180910390fd5b3373ffffffffffffffffffffffffffffffffffffffff166014600083815260200190815260200160002060010160009054906101000a900473ffffffffffffffffffffffffffffffffffffffff1673ffffffffffffffffffffffffffffffffffffffff161461114c576040517f08c379a0000000000000000000000000000000000000000000000000000000008152600401611143906145dd565b60405180910390fd5b61115688886109f6565b5060016014600083815260200190815260200160002060010160146101000a81548160ff021916908315150217905550867f6887a0e53a7f04b5ed4b8f7dc007a901af127436d4dfff9b84b347e35e584553896040516111b69190613769565b60405180910390a260019150509695505050505050565b6111d88484846108f8565b6111e484848484611af1565b6111ed57600080fd5b50505050565b60008060009054906101000a900473ffffffffffffffffffffffffffffffffffffffff16905090565b60606011805461122b90614131565b80601f016020809104026020016040519081016040528092919081815260200182805461125790614131565b80156112a45780601f10611279576101008083540402835291602001916112a4565b820191906000526020600020905b81548152906001019060200180831161128757829003601f168201915b5050505050905090565b60606112b982611bf9565b6112c257600080fd5b6012600083815260200190815260200160002080546112e090614131565b80601f016020809104026020016040519081016040528092919081815260200182805461130c90614131565b80156113595780601f1061132e57610100808354040283529160200191611359565b820191906000526020600020905b81548152906001019060200180831161133c57829003601f168201915b50505050509050919050565b6000600560008473ffffffffffffffffffffffffffffffffffffffff1673ffffffffffffffffffffffffffffffffffffffff16815260200190815260200160002060008373ffffffffffffffffffffffffffffffffffffffff1673ffffffffffffffffffffffffffffffffffffffff16815260200190815260200160002060009054906101000a900460ff16905092915050565b60008054906101000a900473ffffffffffffffffffffffffffffffffffffffff1673ffffffffffffffffffffffffffffffffffffffff163373ffffffffffffffffffffffffffffffffffffffff161461145157600080fd5b80600060146101000a81548160ff02191690831515021790555050565b60008054906101000a900473ffffffffffffffffffffffffffffffffffffffff1673ffffffffffffffffffffffffffffffffffffffff163373ffffffffffffffffffffffffffffffffffffffff16146114c657600080fd5b806000806101000a81548173ffffffffffffffffffffffffffffffffffffffff021916908373ffffffffffffffffffffffffffffffffffffffff16021790555050565b600084848484604051602001611522949392919061441f565b604051602081830303815290604052805190602001209050600073ffffffffffffffffffffffffffffffffffffffff166014600083815260200190815260200160002060010160009054906101000a900473ffffffffffffffffffffffffffffffffffffffff1673ffffffffffffffffffffffffffffffffffffffff16146115df576040517f08c379a00000000000000000000000000000000000000000000000000000000081526004016115d690614649565b60405180910390fd5b60006115ed86868686610b1f565b90508061162f576040517f08c379a0000000000000000000000000000000000000000000000000000000008152600401611626906146b5565b60405180910390fd5b604051806060016040528060155481526020013373ffffffffffffffffffffffffffffffffffffffff16815260200160001515815250601460008481526020019081526020016000206000820151816000015560208201518160010160006101000a81548173ffffffffffffffffffffffffffffffffffffffff021916908373ffffffffffffffffffffffffffffffffffffffff16021790555060408201518160010160146101000a81548160ff0219169083151502179055509050503373ffffffffffffffffffffffffffffffffffffffff167f078793128cefb19aac38a33f9e5df39f67716907f6d747e8065545699e0b2b8d60155460405161173491906138ba565b60405180910390a26015600081548092919061174f9061422d565b9190505550505050505050565b60008061176883610d99565b90508073ffffffffffffffffffffffffffffffffffffffff168473ffffffffffffffffffffffffffffffffffffffff1614806117d757508373ffffffffffffffffffffffffffffffffffffffff166117bf846105b9565b73ffffffffffffffffffffffffffffffffffffffff16145b806117f057506117ef6117e984610d99565b85611365565b5b91505092915050565b611804838383611c6b565b61180e8382611e53565b611818828261200a565b505050565b61182782826120ce565b611831828261200a565b61183a816121d9565b5050565b61184781611bf9565b611886576040517f08c379a000000000000000000000000000000000000000000000000000000000815260040161187d90614721565b60405180910390fd5b6119226011805461189690614131565b80601f01602080910402602001604051908101604052809291908181526020018280546118c290614131565b801561190f5780601f106118e45761010080835404028352916020019161190f565b820191906000526020600020905b8154815290600101906020018083116118f257829003601f168201915b505050505061191d83612222565b61239e565b601260008381526020019081526020016000209080519060200190611948929190613444565b5050565b6000807f30644e72e131a029b85045b68181585d2833e84879b9709143e1f593f00000019050600061197c6123e2565b9050806080015151600186516119929190614741565b1461199c57600080fd5b60006040518060400160405280600081526020016000815250905060005b8651811015611a5557838782815181106119d7576119d6614163565b5b6020026020010151106119e957600080fd5b611a4082611a3b8560800151600185611a029190614741565b81518110611a1357611a12614163565b5b60200260200101518a8581518110611a2e57611a2d614163565b5b602002602001015161285e565b612905565b91508080611a4d9061422d565b9150506119ba565b50611a7f818360800151600081518110611a7257611a71614163565b5b6020026020010151612905565b9050611ac585600001518660200151611a97846129d2565b8560400151611aa98a604001516129d2565b8760600151611abb89600001516129d2565b8960200151612a77565b611ad55760019350505050611add565b600093505050505b92915050565b600081600001549050919050565b6000611b128473ffffffffffffffffffffffffffffffffffffffff16612c44565b611b1f5760019050611bf1565b60008473ffffffffffffffffffffffffffffffffffffffff1663150b7a02338887876040518563ffffffff1660e01b8152600401611b6094939291906147ec565b6020604051808303816000875af1158015611b7f573d6000803e3d6000fd5b505050506040513d601f19601f82011682018060405250810190611ba3919061484d565b905063150b7a0260e01b7bffffffffffffffffffffffffffffffffffffffffffffffffffffffff1916817bffffffffffffffffffffffffffffffffffffffffffffffffffffffff1916149150505b949350505050565b6000806002600084815260200190815260200160002060009054906101000a900473ffffffffffffffffffffffffffffffffffffffff169050600073ffffffffffffffffffffffffffffffffffffffff168173ffffffffffffffffffffffffffffffffffffffff161415915050919050565b8273ffffffffffffffffffffffffffffffffffffffff16611c8b82610d99565b73ffffffffffffffffffffffffffffffffffffffff1614611ce1576040517f08c379a0000000000000000000000000000000000000000000000000000000008152600401611cd8906148ec565b60405180910390fd5b600073ffffffffffffffffffffffffffffffffffffffff168273ffffffffffffffffffffffffffffffffffffffff161415611d51576040517f08c379a0000000000000000000000000000000000000000000000000000000008152600401611d4890614958565b60405180910390fd5b611d5a81612c67565b816002600083815260200190815260200160002060006101000a81548173ffffffffffffffffffffffffffffffffffffffff021916908373ffffffffffffffffffffffffffffffffffffffff160217905550611df3600460008473ffffffffffffffffffffffffffffffffffffffff1673ffffffffffffffffffffffffffffffffffffffff168152602001908152602001600020612d25565b808273ffffffffffffffffffffffffffffffffffffffff168473ffffffffffffffffffffffffffffffffffffffff167fddf252ad1be2c89b69c2b068fc378daa952ba7f163c4a11628f55a4df523b3ef60405160405180910390a4505050565b60006001600660008573ffffffffffffffffffffffffffffffffffffffff1673ffffffffffffffffffffffffffffffffffffffff16815260200190815260200160002080549050611ea49190614978565b9050600060076000848152602001908152602001600020549050818114611f9f576000600660008673ffffffffffffffffffffffffffffffffffffffff1673ffffffffffffffffffffffffffffffffffffffff1681526020019081526020016000208381548110611f1857611f17614163565b5b9060005260206000200154905080600660008773ffffffffffffffffffffffffffffffffffffffff1673ffffffffffffffffffffffffffffffffffffffff1681526020019081526020016000208381548110611f7757611f76614163565b5b9060005260206000200181905550816007600083815260200190815260200160002081905550505b600660008573ffffffffffffffffffffffffffffffffffffffff1673ffffffffffffffffffffffffffffffffffffffff168152602001908152602001600020805480611fee57611fed6149ac565b5b6001900381819060005260206000200160009055905550505050565b600660008373ffffffffffffffffffffffffffffffffffffffff1673ffffffffffffffffffffffffffffffffffffffff168152602001908152602001600020805490506007600083815260200190815260200160002081905550600660008373ffffffffffffffffffffffffffffffffffffffff1673ffffffffffffffffffffffffffffffffffffffff1681526020019081526020016000208190806001815401808255809150506001900390600052602060002001600090919091909150555050565b6120d781611bf9565b156120e157600080fd5b816002600083815260200190815260200160002060006101000a81548173ffffffffffffffffffffffffffffffffffffffff021916908373ffffffffffffffffffffffffffffffffffffffff16021790555061217a600460008473ffffffffffffffffffffffffffffffffffffffff1673ffffffffffffffffffffffffffffffffffffffff168152602001908152602001600020612d25565b808273ffffffffffffffffffffffffffffffffffffffff163373ffffffffffffffffffffffffffffffffffffffff167fddf252ad1be2c89b69c2b068fc378daa952ba7f163c4a11628f55a4df523b3ef60405160405180910390a45050565b6008805490506009600083815260200190815260200160002081905550600881908060018154018082558091505060019003906000526020600020016000909190919091505550565b6060600082141561226a576040518060400160405280600181526020017f30000000000000000000000000000000000000000000000000000000000000008152509050612399565b600082905060005b6000821461229c5780806122859061422d565b915050600a826122959190614a0a565b9150612272565b60008167ffffffffffffffff8111156122b8576122b7613968565b5b6040519080825280601f01601f1916602001820160405280156122ea5781602001600182028036833780820191505090505b50905060006001836122fc9190614978565b90505b6000861461239157600a866123149190614a3b565b60306123209190614741565b60f81b82828151811061233657612335614163565b5b60200101907effffffffffffffffffffffffffffffffffffffffffffffffffffffffffffff1916908160001a905350600a866123729190614a0a565b9550600081111561238c57808061238890614a6c565b9150505b6122ff565b819450505050505b919050565b60606123da8383604051806020016040528060008152506040518060200160405280600081525060405180602001604052806000815250612d3b565b905092915050565b6123ea6134ca565b60405180604001604052807f06fcbeb121eff91f051964954c336d4fa53dbd1b13fc138c567ca4b90ad4e94381526020017f21463ef7e0821276448eec0cd136579e691cb2cdf5c76d7889adba73eef6b24a8152508160000181905250604051806040016040528060405180604001604052807f13def9f09dc31a6c6abeae850f335a41370ee465b42fd1401cacd6adf880c6ae81526020017f26a10daf9a0b2e7e52e5db502a28f687db0201d4ccad3e2d9c2285dc2f490ed5815250815260200160405180604001604052807f1a422b45c272d68809878f2bf9b007eaeb3a480fe62b2a8025efe195f559661f81526020017f0998825aaecc807090591c260e98b599444c836b94e954ee780021bf7c12c99b8152508152508160200181905250604051806040016040528060405180604001604052807f0c1f31005b6088853d87e8f5528414944ec82a00d7e90c39df0be0b3f2e4bb2d81526020017f248c8dfe2aea698dcd82aa188c575429a8ef9feec31976270dc22684b13503d0815250815260200160405180604001604052807f2e0ea8391a29aadca5c46aa440e15a2d1ac4349b0d750b5262b073c7c924377981526020017f12b0637d86efa9959b48c7cd3733428dd36eac2f44934074c836d8cbcef7ccfc8152508152508160400181905250604051806040016040528060405180604001604052807f07615a4c5a2ccdeb7391b25af4766bd6cfcea515e278e5106fb9d5b8b583ea2081526020017f139905e892ad0d6aa9dedc28d1483a141819536bf72d5202ddaf0baacb331b13815250815260200160405180604001604052807f23b1ad7d65b8a5cc03c2e81d5968cf5abb38abc0d9fce8caac5a3e2e662ddce881526020017f0251650518512eeee2daad234d73cfb3c81ddd268d60d702a45d3a45b6dd63f28152508152508160600181905250600367ffffffffffffffff8111156126b1576126b0613968565b5b6040519080825280602002602001820160405280156126ea57816020015b6126d7613511565b8152602001906001900390816126cf5790505b50816080018190525060405180604001604052807f083025351dbcd430d90e4978173a31db72672ec69e6e1e0f12b4271b65beb0e881526020017f173b1ac2909ba86f6815a9e2e449adf1a0b331aa34baed42b1a47d6947f8675e81525081608001516000815181106127605761275f614163565b5b602002602001018190525060405180604001604052807f130effd37725b12293534d64ed760da15430d87a4b392c8a6fca9f3456251ba781526020017f19461eea0f3f0e3af8f2368f928fe7a580187764bf4eb2641c6cd06780fa4bc281525081608001516001815181106127d8576127d7614163565b5b602002602001018190525060405180604001604052807f0e43ae774b0cfe30f5c8e4e528970e6124043aeaf14f5d87917eb73399f9308581526020017f2eaa3d370a61ee480a0ba80351b9f7b25c84b996c3e4c33c8a0090cbb88ce92481525081608001516002815181106128505761284f614163565b5b602002602001018190525090565b612866613511565b61286e61352b565b83600001518160006003811061288757612886614163565b5b6020020181815250508360200151816001600381106128a9576128a8614163565b5b60200201818152505082816002600381106128c7576128c6614163565b5b602002018181525050600060608360808460076107d05a03fa905080600081146128f0576128f2565bfe5b50806128fd57600080fd5b505092915050565b61290d613511565b61291561354d565b83600001518160006004811061292e5761292d614163565b5b6020020181815250508360200151816001600481106129505761294f614163565b5b60200201818152505082600001518160026004811061297257612971614163565b5b60200201818152505082602001518160036004811061299457612993614163565b5b602002018181525050600060608360c08460066107d05a03fa905080600081146129bd576129bf565bfe5b50806129ca57600080fd5b505092915050565b6129da613511565b60007f30644e72e131a029b85045b68181585d97816a916871ca8d3c208c16d87cfd47905060008360000151148015612a17575060008360200151145b15612a3b576040518060400160405280600081526020016000815250915050612a72565b604051806040016040528084600001518152602001828560200151612a609190614a3b565b83612a6b9190614978565b8152509150505b919050565b600080600467ffffffffffffffff811115612a9557612a94613968565b5b604051908082528060200260200182016040528015612ace57816020015b612abb613511565b815260200190600190039081612ab35790505b5090506000600467ffffffffffffffff811115612aee57612aed613968565b5b604051908082528060200260200182016040528015612b2757816020015b612b1461356f565b815260200190600190039081612b0c5790505b5090508a82600081518110612b3f57612b3e614163565b5b60200260200101819052508882600181518110612b5f57612b5e614163565b5b60200260200101819052508682600281518110612b7f57612b7e614163565b5b60200260200101819052508482600381518110612b9f57612b9e614163565b5b60200260200101819052508981600081518110612bbf57612bbe614163565b5b60200260200101819052508781600181518110612bdf57612bde614163565b5b60200260200101819052508581600281518110612bff57612bfe614163565b5b60200260200101819052508381600381518110612c1f57612c1e614163565b5b6020026020010181905250612c3482826130b6565b9250505098975050505050505050565b6000808273ffffffffffffffffffffffffffffffffffffffff163b119050919050565b600073ffffffffffffffffffffffffffffffffffffffff166003600083815260200190815260200160002060009054906101000a900473ffffffffffffffffffffffffffffffffffffffff1673ffffffffffffffffffffffffffffffffffffffff1614612d225760006003600083815260200190815260200160002060006101000a81548173ffffffffffffffffffffffffffffffffffffffff021916908373ffffffffffffffffffffffffffffffffffffffff1602179055505b50565b6001816000016000828254019250508190555050565b606060008690506000869050600086905060008690506000869050600081518351855187518951612d6c9190614741565b612d769190614741565b612d809190614741565b612d8a9190614741565b67ffffffffffffffff811115612da357612da2613968565b5b6040519080825280601f01601f191660200182016040528015612dd55781602001600182028036833780820191505090505b5090506000819050600080600090505b8851811015612e6d57888181518110612e0157612e00614163565b5b602001015160f81c60f81b838380612e189061422d565b945081518110612e2b57612e2a614163565b5b60200101907effffffffffffffffffffffffffffffffffffffffffffffffffffffffffffff1916908160001a9053508080612e659061422d565b915050612de5565b600090505b8751811015612efa57878181518110612e8e57612e8d614163565b5b602001015160f81c60f81b838380612ea59061422d565b945081518110612eb857612eb7614163565b5b60200101907effffffffffffffffffffffffffffffffffffffffffffffffffffffffffffff1916908160001a9053508080612ef29061422d565b915050612e72565b600090505b8651811015612f8757868181518110612f1b57612f1a614163565b5b602001015160f81c60f81b838380612f329061422d565b945081518110612f4557612f44614163565b5b60200101907effffffffffffffffffffffffffffffffffffffffffffffffffffffffffffff1916908160001a9053508080612f7f9061422d565b915050612eff565b600090505b855181101561301457858181518110612fa857612fa7614163565b5b602001015160f81c60f81b838380612fbf9061422d565b945081518110612fd257612fd1614163565b5b60200101907effffffffffffffffffffffffffffffffffffffffffffffffffffffffffffff1916908160001a905350808061300c9061422d565b915050612f8c565b600090505b84518110156130a15784818151811061303557613034614163565b5b602001015160f81c60f81b83838061304c9061422d565b94508151811061305f5761305e614163565b5b60200101907effffffffffffffffffffffffffffffffffffffffffffffffffffffffffffff1916908160001a90535080806130999061422d565b915050613019565b82995050505050505050505095945050505050565b600081518351146130c657600080fd5b60008351905060006006826130db9190614a96565b905060008167ffffffffffffffff8111156130f9576130f8613968565b5b6040519080825280602002602001820160405280156131275781602001602082028036833780820191505090505b50905060005b838110156133ac5786818151811061314857613147614163565b5b6020026020010151600001518260006006846131649190614a96565b61316e9190614741565b8151811061317f5761317e614163565b5b60200260200101818152505086818151811061319e5761319d614163565b5b6020026020010151602001518260016006846131ba9190614a96565b6131c49190614741565b815181106131d5576131d4614163565b5b6020026020010181815250508581815181106131f4576131f3614163565b5b60200260200101516000015160016002811061321357613212614163565b5b60200201518260026006846132289190614a96565b6132329190614741565b8151811061324357613242614163565b5b60200260200101818152505085818151811061326257613261614163565b5b60200260200101516000015160006002811061328157613280614163565b5b60200201518260036006846132969190614a96565b6132a09190614741565b815181106132b1576132b0614163565b5b6020026020010181815250508581815181106132d0576132cf614163565b5b6020026020010151602001516001600281106132ef576132ee614163565b5b60200201518260046006846133049190614a96565b61330e9190614741565b8151811061331f5761331e614163565b5b60200260200101818152505085818151811061333e5761333d614163565b5b60200260200101516020015160006002811061335d5761335c614163565b5b60200201518260056006846133729190614a96565b61337c9190614741565b8151811061338d5761338c614163565b5b60200260200101818152505080806133a49061422d565b91505061312d565b506133b5613595565b6000602082602086026020860160086107d05a03fa905080600081146133da576133dc565bfe5b50806133e757600080fd5b6000826000600181106133fd576133fc614163565b5b602002015114159550505050505092915050565b6040518060600160405280613424613511565b815260200161343161356f565b815260200161343e613511565b81525090565b82805461345090614131565b90600052602060002090601f01602090048101928261347257600085556134b9565b82601f1061348b57805160ff19168380011785556134b9565b828001600101855582156134b9579182015b828111156134b857825182559160200191906001019061349d565b5b5090506134c691906135b7565b5090565b6040518060a001604052806134dd613511565b81526020016134ea61356f565b81526020016134f761356f565b815260200161350461356f565b8152602001606081525090565b604051806040016040528060008152602001600081525090565b6040518060600160405280600390602082028036833780820191505090505090565b6040518060800160405280600490602082028036833780820191505090505090565b60405180604001604052806135826135d4565b815260200161358f6135d4565b81525090565b6040518060200160405280600190602082028036833780820191505090505090565b5b808211156135d05760008160009055506001016135b8565b5090565b6040518060400160405280600290602082028036833780820191505090505090565b6000604051905090565b600080fd5b600080fd5b60007fffffffff0000000000000000000000000000000000000000000000000000000082169050919050565b61363f8161360a565b811461364a57600080fd5b50565b60008135905061365c81613636565b92915050565b60006020828403121561367857613677613600565b5b60006136868482850161364d565b91505092915050565b60008115159050919050565b6136a48161368f565b82525050565b60006020820190506136bf600083018461369b565b92915050565b6000819050919050565b6136d8816136c5565b81146136e357600080fd5b50565b6000813590506136f5816136cf565b92915050565b60006020828403121561371157613710613600565b5b600061371f848285016136e6565b91505092915050565b600073ffffffffffffffffffffffffffffffffffffffff82169050919050565b600061375382613728565b9050919050565b61376381613748565b82525050565b600060208201905061377e600083018461375a565b92915050565b61378d81613748565b811461379857600080fd5b50565b6000813590506137aa81613784565b92915050565b600080604083850312156137c7576137c6613600565b5b60006137d58582860161379b565b92505060206137e6858286016136e6565b9150509250929050565b600081519050919050565b600082825260208201905092915050565b60005b8381101561382a57808201518184015260208101905061380f565b83811115613839576000848401525b50505050565b6000601f19601f8301169050919050565b600061385b826137f0565b61386581856137fb565b935061387581856020860161380c565b61387e8161383f565b840191505092915050565b600060208201905081810360008301526138a38184613850565b905092915050565b6138b4816136c5565b82525050565b60006020820190506138cf60008301846138ab565b92915050565b6000806000606084860312156138ee576138ed613600565b5b60006138fc8682870161379b565b935050602061390d8682870161379b565b925050604061391e868287016136e6565b9150509250925092565b6000819050919050565b61393b81613928565b811461394657600080fd5b50565b60008135905061395881613932565b92915050565b600080fd5b600080fd5b7f4e487b7100000000000000000000000000000000000000000000000000000000600052604160045260246000fd5b6139a08261383f565b810181811067ffffffffffffffff821117156139bf576139be613968565b5b80604052505050565b60006139d26135f6565b90506139de8282613997565b919050565b600067ffffffffffffffff8211156139fe576139fd613968565b5b613a078261383f565b9050602081019050919050565b82818337600083830152505050565b6000613a36613a31846139e3565b6139c8565b905082815260208101848484011115613a5257613a51613963565b5b613a5d848285613a14565b509392505050565b600082601f830112613a7a57613a7961395e565b5b8135613a8a848260208601613a23565b91505092915050565b60008060408385031215613aaa57613aa9613600565b5b6000613ab885828601613949565b925050602083013567ffffffffffffffff811115613ad957613ad8613605565b5b613ae585828601613a65565b9150509250929050565b600067ffffffffffffffff821115613b0a57613b09613968565b5b613b138261383f565b9050602081019050919050565b6000613b33613b2e84613aef565b6139c8565b905082815260208101848484011115613b4f57613b4e613963565b5b613b5a848285613a14565b509392505050565b600082601f830112613b7757613b7661395e565b5b8135613b87848260208601613b20565b91505092915050565b600080600060608486031215613ba957613ba8613600565b5b6000613bb786828701613949565b935050602084013567ffffffffffffffff811115613bd857613bd7613605565b5b613be486828701613a65565b925050604084013567ffffffffffffffff811115613c0557613c04613605565b5b613c1186828701613b62565b9150509250925092565b600067ffffffffffffffff821115613c3657613c35613968565b5b602082029050919050565b600080fd5b6000613c59613c5484613c1b565b6139c8565b90508060208402830185811115613c7357613c72613c41565b5b835b81811015613c9c5780613c8888826136e6565b845260208401935050602081019050613c75565b5050509392505050565b600082601f830112613cbb57613cba61395e565b5b6002613cc8848285613c46565b91505092915050565b600067ffffffffffffffff821115613cec57613ceb613968565b5b602082029050919050565b6000613d0a613d0584613cd1565b6139c8565b90508060408402830185811115613d2457613d23613c41565b5b835b81811015613d4d5780613d398882613ca6565b845260208401935050604081019050613d26565b5050509392505050565b600082601f830112613d6c57613d6b61395e565b5b6002613d79848285613cf7565b91505092915050565b6000806000806101408587031215613d9d57613d9c613600565b5b6000613dab87828801613ca6565b9450506040613dbc87828801613d57565b93505060c0613dcd87828801613ca6565b925050610100613ddf87828801613ca6565b91505092959194509250565b600060208284031215613e0157613e00613600565b5b6000613e0f8482850161379b565b91505092915050565b613e218161368f565b8114613e2c57600080fd5b50565b600081359050613e3e81613e18565b92915050565b60008060408385031215613e5b57613e5a613600565b5b6000613e698582860161379b565b9250506020613e7a85828601613e2f565b9150509250929050565b6000806000806000806101808789031215613ea257613ea1613600565b5b6000613eb089828a0161379b565b9650506020613ec189828a016136e6565b9550506040613ed289828a01613ca6565b9450506080613ee389828a01613d57565b935050610100613ef589828a01613ca6565b925050610140613f0789828a01613ca6565b9150509295509295509295565b60008060008060808587031215613f2e57613f2d613600565b5b6000613f3c8782880161379b565b9450506020613f4d8782880161379b565b9350506040613f5e878288016136e6565b925050606085013567ffffffffffffffff811115613f7f57613f7e613605565b5b613f8b87828801613b62565b91505092959194509250565b60008060408385031215613fae57613fad613600565b5b6000613fbc8582860161379b565b9250506020613fcd8582860161379b565b9150509250929050565b600060208284031215613fed57613fec613600565b5b6000613ffb84828501613e2f565b91505092915050565b7f74686520676976656e20616464726573732063616e206e6f742062652074686560008201527f206f776e6572206f662074686520746f6b656e49640000000000000000000000602082015250565b60006140606035836137fb565b915061406b82614004565b604082019050919050565b6000602082019050818103600083015261408f81614053565b9050919050565b7f46756e6374696f6e2063616c6c6572206973206e6f7420617070726f76656400600082015250565b60006140cc601f836137fb565b91506140d782614096565b602082019050919050565b600060208201905081810360008301526140fb816140bf565b9050919050565b7f4e487b7100000000000000000000000000000000000000000000000000000000600052602260045260246000fd5b6000600282049050600182168061414957607f821691505b6020821081141561415d5761415c614102565b5b50919050565b7f4e487b7100000000000000000000000000000000000000000000000000000000600052603260045260246000fd5b7f7061757365640000000000000000000000000000000000000000000000000000600082015250565b60006141c86006836137fb565b91506141d382614192565b602082019050919050565b600060208201905081810360008301526141f7816141bb565b9050919050565b7f4e487b7100000000000000000000000000000000000000000000000000000000600052601160045260246000fd5b6000614238826136c5565b91507fffffffffffffffffffffffffffffffffffffffffffffffffffffffffffffffff82141561426b5761426a6141fe565b5b600182019050919050565b600060029050919050565b600081905092915050565b6000819050919050565b61429f816136c5565b82525050565b60006142b18383614296565b60208301905092915050565b6000602082019050919050565b6142d381614276565b6142dd8184614281565b92506142e88261428c565b8060005b8381101561431957815161430087826142a5565b965061430b836142bd565b9250506001810190506142ec565b505050505050565b600060029050919050565b600081905092915050565b6000819050919050565b600081905092915050565b61435581614276565b61435f8184614341565b925061436a8261428c565b8060005b8381101561439b57815161438287826142a5565b965061438d836142bd565b92505060018101905061436e565b505050505050565b60006143af838361434c565b60408301905092915050565b6000602082019050919050565b6143d181614321565b6143db818461432c565b92506143e682614337565b8060005b838110156144175781516143fe87826143a3565b9650614409836143bb565b9250506001810190506143ea565b505050505050565b600061442b82876142ca565b60408201915061443b82866143c8565b60808201915061444b82856142ca565b60408201915061445b82846142ca565b60408201915081905095945050505050565b7f536f6c7574696f6e20646f6573206e6f74206578697374000000000000000000600082015250565b60006144a36017836137fb565b91506144ae8261446d565b602082019050919050565b600060208201905081810360008301526144d281614496565b9050919050565b7f546f6b656e20616c7265616479206d696e74656420666f72207468697320736f60008201527f6c7574696f6e0000000000000000000000000000000000000000000000000000602082015250565b60006145356026836137fb565b9150614540826144d9565b604082019050919050565b6000602082019050818103600083015261456481614528565b9050919050565b7f4f6e6c7920736f6c7574696f6e20616464726573732063616e2075736520697460008201527f20746f206d696e74206120746f6b656e00000000000000000000000000000000602082015250565b60006145c76030836137fb565b91506145d28261456b565b604082019050919050565b600060208201905081810360008301526145f6816145ba565b9050919050565b7f536f6c7574696f6e2065786973747320616c7265616479000000000000000000600082015250565b60006146336017836137fb565b915061463e826145fd565b602082019050919050565b6000602082019050818103600083015261466281614626565b9050919050565b7f536f6c7574696f6e20636f756c64206e6f742062652076657269666965640000600082015250565b600061469f601e836137fb565b91506146aa82614669565b602082019050919050565b600060208201905081810360008301526146ce81614692565b9050919050565b7f546f6b656e20646f6573206e6f74206578697374000000000000000000000000600082015250565b600061470b6014836137fb565b9150614716826146d5565b602082019050919050565b6000602082019050818103600083015261473a816146fe565b9050919050565b600061474c826136c5565b9150614757836136c5565b9250827fffffffffffffffffffffffffffffffffffffffffffffffffffffffffffffffff0382111561478c5761478b6141fe565b5b828201905092915050565b600081519050919050565b600082825260208201905092915050565b60006147be82614797565b6147c881856147a2565b93506147d881856020860161380c565b6147e18161383f565b840191505092915050565b6000608082019050614801600083018761375a565b61480e602083018661375a565b61481b60408301856138ab565b818103606083015261482d81846147b3565b905095945050505050565b60008151905061484781613636565b92915050565b60006020828403121561486357614862613600565b5b600061487184828501614838565b91505092915050565b7f5468652066726f6d2061646472657373206973206e6f7420746865206f776e6560008201527f72206f662074686520746f6b656e000000000000000000000000000000000000602082015250565b60006148d6602e836137fb565b91506148e18261487a565b604082019050919050565b60006020820190508181036000830152614905816148c9565b9050919050565b7f54686520746f2061646472657373206973206e6f742076616c69640000000000600082015250565b6000614942601b836137fb565b915061494d8261490c565b602082019050919050565b6000602082019050818103600083015261497181614935565b9050919050565b6000614983826136c5565b915061498e836136c5565b9250828210156149a1576149a06141fe565b5b828203905092915050565b7f4e487b7100000000000000000000000000000000000000000000000000000000600052603160045260246000fd5b7f4e487b7100000000000000000000000000000000000000000000000000000000600052601260045260246000fd5b6000614a15826136c5565b9150614a20836136c5565b925082614a3057614a2f6149db565b5b828204905092915050565b6000614a46826136c5565b9150614a51836136c5565b925082614a6157614a606149db565b5b828206905092915050565b6000614a77826136c5565b91506000821415614a8b57614a8a6141fe565b5b600182039050919050565b6000614aa1826136c5565b9150614aac836136c5565b9250817fffffffffffffffffffffffffffffffffffffffffffffffffffffffffffffffff0483118215151615614ae557614ae46141fe565b5b82820290509291505056fea2646970667358221220fb98af44bb2e3f12e78fdd4ff3fbead80e09dbc412d217112efcec0d6577043f64736f6c634300080b003368747470733a2f2f73332d75732d776573742d322e616d617a6f6e6177732e636f6d2f756461636974792d626c6f636b636861696e2f63617073746f6e652f",
  "immutableReferences": {},
  "source": "// SPDX-License-Identifier: MIT\npragma solidity ^0.8.11;\n\nimport './ERC721Mintable.sol';\nimport \"./Verifier.sol\";\n// TODO define a contract call to the zokrates generated solidity contract <Verifier> or <renamedVerifier>\n//interface Verifier{\n   // function verifyTx( uint[2] memory  a, uint[2] memory  a_p,  uint[2][2] memory  b, uint[2] memory  b_p, uint[2] memory  c,  uint[2] memory  c_p, uint[2] memory  h, uint[2] memory  k, uint[2] memory  input ) external returns (bool r) ;\n   // }\n\n\n// TODO define another contract named SolnSquareVerifier that inherits from your ERC721Mintable class\n\n contract SolnSquareVerifier is CustomERC721Token, Verifier{\n    //Verifier verifierContract;\n\n\n// TODO define a solutions struct that can hold an index & an address\n struct Solution {\n        uint256 solutionIndex;\n        address solutionAddress;\n        bool minted; \n    }\n\n// TODO define an array of the above struct\nSolution[] private solutionsArray;\n\n// TODO define a mapping to store unique solutions submitted\n\nmapping (bytes32 => Solution) solutions;\n\n constructor(\n     //address verifierAddress, \n     string memory name, \n     string memory symbol) \n        CustomERC721Token(name, symbol) \n    {\n     //verifierContract = Verifier(verifierAddress);\n    }\n\n\n//Solution Index\n uint256 solutionNumber = 0;\n// TODO Create an event to emit when a solution is added\nevent SolutionAdded(uint256 Index, address indexed Address);\n\n\n// TODO Create a function to add the solutions to the array and emit the event\n\nfunction addSolution( uint[2] memory A,  uint[2][2] memory B, uint[2] memory C,  uint[2] memory input) \n        external \n    {\n        bytes32 Hash = keccak256(abi.encodePacked(A,  B, C, input));\n        require(solutions[Hash].solutionAddress == address(0), \"Solution exists already\");\n        \n        bool verified = verifyTx(A,  B,  C, input);\n        require(verified, \"Solution could not be verified\");\n\n        solutions[Hash] = Solution(solutionNumber, msg.sender, false);\n        //solutions.push(solution);\n        emit SolutionAdded(solutionNumber, msg.sender);\n        solutionNumber++;\n    }\n\n// TODO Create a function to mint new NFT only after the solution has been verified\n//  - make sure the solution is unique (has not been used before)\n//  - make sure you handle metadata as well as tokenSuplly\n\nevent minted(uint256 indexed tokenId, address owner);\n\n function mintVerified( \n      address to,\n        uint256 tokenId,\n        uint[2] memory a,\n        uint[2][2] memory b,\n        uint[2] memory c,\n        uint[2] memory input)\n       public returns (bool)\n    {\n        \n    bytes32 solutionsKey =  keccak256(abi.encodePacked(a,  b, c, input));\n    require(solutions[solutionsKey].solutionAddress != address(0), \"Solution does not exist\");\n    require(solutions[solutionsKey].minted == false, \"Token already minted for this solution\");\n    require(solutions[solutionsKey].solutionAddress == msg.sender, \"Only solution address can use it to mint a token\");\n    mint(to, tokenId);\n    solutions[solutionsKey].minted = true;\n    emit minted(tokenId, to); \n    return true; \n    }\n\n  \n }\n\n\n\n\n\n\n\n\n\n\n\n\n\n\n\n\n\n\n\n\n\n\n\n\n\n\n",
  "sourcePath": "/Users/eamonnmulhearne/projects/udacity_blockchain1/Blockchain-Capstone/eth-contracts/contracts/SolnSquareVerifier.sol",
  "compiler": {
    "name": "solc",
    "version": "0.8.11+commit.d7f03943.Emscripten.clang"
  },
  "schemaVersion": "3.4.5",
  "updatedAt": "2022-03-20T14:40:37.693Z",
  "networkType": "ethereum",
  "devdoc": {
    "kind": "dev",
    "methods": {
      "isApprovedForAll(address,address)": {
        "details": "Tells whether an operator is approved by a given owner",
        "params": {
          "operator": "operator address which you want to query the approval of",
          "owner": "owner address which you want to query the approval of"
        },
        "returns": {
          "_0": "bool whether the given operator is approved by the given owner"
        }
      },
      "setApprovalForAll(address,bool)": {
        "details": "Sets or unsets the approval of a given operator An operator is allowed to transfer all tokens of the sender on their behalf",
        "params": {
          "approved": "representing the status of the approval to be set",
          "to": "operator address to set the approval"
        }
      },
      "supportsInterface(bytes4)": {
        "details": "implement supportsInterface(bytes4) using a lookup table"
      },
      "tokenByIndex(uint256)": {
        "details": "Gets the token ID at a given index of all the tokens in this contract Reverts if the index is greater or equal to the total number of tokens",
        "params": {
          "index": "uint256 representing the index to be accessed of the tokens list"
        },
        "returns": {
          "_0": "uint256 token ID at the given index of the tokens list"
        }
      },
      "tokenOfOwnerByIndex(address,uint256)": {
        "details": "Gets the token ID at a given index of the tokens list of the requested owner",
        "params": {
          "index": "uint256 representing the index to be accessed of the requested tokens list",
          "owner": "address owning the tokens list to be accessed"
        },
        "returns": {
          "_0": "uint256 token ID at the given index of the tokens list owned by the requested address"
        }
      },
      "totalSupply()": {
        "details": "Gets the total amount of tokens stored by the contract",
        "returns": {
          "_0": "uint256 representing the total amount of tokens"
        }
      }
    },
    "version": 1
  },
  "userdoc": {
    "kind": "user",
    "methods": {},
    "version": 1
  }
}