{
  "contractName": "SolnSquareVerifier",
  "abi": [
    {
      "inputs": [
        {
          "internalType": "string",
          "name": "name",
          "type": "string"
        },
        {
          "internalType": "string",
          "name": "symbol",
          "type": "string"
        }
      ],
      "stateMutability": "nonpayable",
      "type": "constructor"
    },
    {
      "anonymous": false,
      "inputs": [
        {
          "indexed": true,
          "internalType": "address",
          "name": "owner",
          "type": "address"
        },
        {
          "indexed": true,
          "internalType": "address",
          "name": "approved",
          "type": "address"
        },
        {
          "indexed": true,
          "internalType": "uint256",
          "name": "tokenId",
          "type": "uint256"
        }
      ],
      "name": "Approval",
      "type": "event"
    },
    {
      "anonymous": false,
      "inputs": [
        {
          "indexed": true,
          "internalType": "address",
          "name": "owner",
          "type": "address"
        },
        {
          "indexed": true,
          "internalType": "address",
          "name": "operator",
          "type": "address"
        },
        {
          "indexed": false,
          "internalType": "bool",
          "name": "approved",
          "type": "bool"
        }
      ],
      "name": "ApprovalForAll",
      "type": "event"
    },
    {
      "anonymous": false,
      "inputs": [
        {
          "indexed": false,
          "internalType": "bool",
          "name": "isPaused",
          "type": "bool"
        },
        {
          "indexed": false,
          "internalType": "address",
          "name": "sender",
          "type": "address"
        }
      ],
      "name": "Paused",
      "type": "event"
    },
    {
      "anonymous": false,
      "inputs": [
        {
          "indexed": false,
          "internalType": "uint256",
          "name": "Index",
          "type": "uint256"
        },
        {
          "indexed": true,
          "internalType": "address",
          "name": "Address",
          "type": "address"
        }
      ],
      "name": "SolutionAdded",
      "type": "event"
    },
    {
      "anonymous": false,
      "inputs": [
        {
          "indexed": true,
          "internalType": "address",
          "name": "from",
          "type": "address"
        },
        {
          "indexed": true,
          "internalType": "address",
          "name": "to",
          "type": "address"
        },
        {
          "indexed": true,
          "internalType": "uint256",
          "name": "tokenId",
          "type": "uint256"
        }
      ],
      "name": "Transfer",
      "type": "event"
    },
    {
      "anonymous": false,
      "inputs": [
        {
          "indexed": false,
          "internalType": "bool",
          "name": "isPaused",
          "type": "bool"
        },
        {
          "indexed": false,
          "internalType": "address",
          "name": "sender",
          "type": "address"
        }
      ],
      "name": "Unpaused",
      "type": "event"
    },
    {
      "inputs": [
        {
          "internalType": "bytes32",
          "name": "_myid",
          "type": "bytes32"
        },
        {
          "internalType": "string",
          "name": "_result",
          "type": "string"
        }
      ],
      "name": "__callback",
      "outputs": [],
      "stateMutability": "pure",
      "type": "function",
      "constant": true
    },
    {
      "inputs": [
        {
          "internalType": "bytes32",
          "name": "_myid",
          "type": "bytes32"
        },
        {
          "internalType": "string",
          "name": "_result",
          "type": "string"
        },
        {
          "internalType": "bytes",
          "name": "_proof",
          "type": "bytes"
        }
      ],
      "name": "__callback",
      "outputs": [],
      "stateMutability": "pure",
      "type": "function",
      "constant": true
    },
    {
      "inputs": [
        {
          "internalType": "address",
          "name": "to",
          "type": "address"
        },
        {
          "internalType": "uint256",
          "name": "tokenId",
          "type": "uint256"
        }
      ],
      "name": "approve",
      "outputs": [],
      "stateMutability": "nonpayable",
      "type": "function"
    },
    {
      "inputs": [
        {
          "internalType": "address",
          "name": "owner",
          "type": "address"
        }
      ],
      "name": "balanceOf",
      "outputs": [
        {
          "internalType": "uint256",
          "name": "",
          "type": "uint256"
        }
      ],
      "stateMutability": "view",
      "type": "function",
      "constant": true
    },
    {
      "inputs": [
        {
          "internalType": "uint256",
          "name": "tokenId",
          "type": "uint256"
        }
      ],
      "name": "getApproved",
      "outputs": [
        {
          "internalType": "address",
          "name": "",
          "type": "address"
        }
      ],
      "stateMutability": "view",
      "type": "function",
      "constant": true
    },
    {
      "inputs": [],
      "name": "getBaseTokenURI",
      "outputs": [
        {
          "internalType": "string",
          "name": "",
          "type": "string"
        }
      ],
      "stateMutability": "view",
      "type": "function",
      "constant": true
    },
    {
      "inputs": [],
      "name": "getName",
      "outputs": [
        {
          "internalType": "string",
          "name": "",
          "type": "string"
        }
      ],
      "stateMutability": "view",
      "type": "function",
      "constant": true
    },
    {
      "inputs": [],
      "name": "getSymbol",
      "outputs": [
        {
          "internalType": "string",
          "name": "",
          "type": "string"
        }
      ],
      "stateMutability": "view",
      "type": "function",
      "constant": true
    },
    {
      "inputs": [
        {
          "internalType": "address",
          "name": "owner",
          "type": "address"
        },
        {
          "internalType": "address",
          "name": "operator",
          "type": "address"
        }
      ],
      "name": "isApprovedForAll",
      "outputs": [
        {
          "internalType": "bool",
          "name": "",
          "type": "bool"
        }
      ],
      "stateMutability": "view",
      "type": "function",
      "constant": true
    },
    {
      "inputs": [
        {
          "internalType": "address",
          "name": "to",
          "type": "address"
        },
        {
          "internalType": "uint256",
          "name": "tokenId",
          "type": "uint256"
        }
      ],
      "name": "mint",
      "outputs": [
        {
          "internalType": "bool",
          "name": "",
          "type": "bool"
        }
      ],
      "stateMutability": "nonpayable",
      "type": "function"
    },
    {
      "inputs": [
        {
          "internalType": "uint256",
          "name": "tokenId",
          "type": "uint256"
        }
      ],
      "name": "ownerOf",
      "outputs": [
        {
          "internalType": "address",
          "name": "",
          "type": "address"
        }
      ],
      "stateMutability": "view",
      "type": "function",
      "constant": true
    },
    {
      "inputs": [
        {
          "internalType": "address",
          "name": "from",
          "type": "address"
        },
        {
          "internalType": "address",
          "name": "to",
          "type": "address"
        },
        {
          "internalType": "uint256",
          "name": "tokenId",
          "type": "uint256"
        }
      ],
      "name": "safeTransferFrom",
      "outputs": [],
      "stateMutability": "nonpayable",
      "type": "function"
    },
    {
      "inputs": [
        {
          "internalType": "address",
          "name": "from",
          "type": "address"
        },
        {
          "internalType": "address",
          "name": "to",
          "type": "address"
        },
        {
          "internalType": "uint256",
          "name": "tokenId",
          "type": "uint256"
        },
        {
          "internalType": "bytes",
          "name": "_data",
          "type": "bytes"
        }
      ],
      "name": "safeTransferFrom",
      "outputs": [],
      "stateMutability": "nonpayable",
      "type": "function"
    },
    {
      "inputs": [
        {
          "internalType": "address",
          "name": "to",
          "type": "address"
        },
        {
          "internalType": "bool",
          "name": "approved",
          "type": "bool"
        }
      ],
      "name": "setApprovalForAll",
      "outputs": [],
      "stateMutability": "nonpayable",
      "type": "function"
    },
    {
      "inputs": [
        {
          "internalType": "bool",
          "name": "mode",
          "type": "bool"
        }
      ],
      "name": "setPaued",
      "outputs": [],
      "stateMutability": "nonpayable",
      "type": "function"
    },
    {
      "inputs": [
        {
          "internalType": "bytes4",
          "name": "interfaceId",
          "type": "bytes4"
        }
      ],
      "name": "supportsInterface",
      "outputs": [
        {
          "internalType": "bool",
          "name": "",
          "type": "bool"
        }
      ],
      "stateMutability": "view",
      "type": "function",
      "constant": true
    },
    {
      "inputs": [
        {
          "internalType": "uint256",
          "name": "index",
          "type": "uint256"
        }
      ],
      "name": "tokenByIndex",
      "outputs": [
        {
          "internalType": "uint256",
          "name": "",
          "type": "uint256"
        }
      ],
      "stateMutability": "view",
      "type": "function",
      "constant": true
    },
    {
      "inputs": [
        {
          "internalType": "address",
          "name": "owner",
          "type": "address"
        },
        {
          "internalType": "uint256",
          "name": "index",
          "type": "uint256"
        }
      ],
      "name": "tokenOfOwnerByIndex",
      "outputs": [
        {
          "internalType": "uint256",
          "name": "",
          "type": "uint256"
        }
      ],
      "stateMutability": "view",
      "type": "function",
      "constant": true
    },
    {
      "inputs": [
        {
          "internalType": "uint256",
          "name": "tokenId",
          "type": "uint256"
        }
      ],
      "name": "tokenURI",
      "outputs": [
        {
          "internalType": "string",
          "name": "",
          "type": "string"
        }
      ],
      "stateMutability": "view",
      "type": "function",
      "constant": true
    },
    {
      "inputs": [],
      "name": "totalSupply",
      "outputs": [
        {
          "internalType": "uint256",
          "name": "",
          "type": "uint256"
        }
      ],
      "stateMutability": "view",
      "type": "function",
      "constant": true
    },
    {
      "inputs": [
        {
          "internalType": "address",
          "name": "from",
          "type": "address"
        },
        {
          "internalType": "address",
          "name": "to",
          "type": "address"
        },
        {
          "internalType": "uint256",
          "name": "tokenId",
          "type": "uint256"
        }
      ],
      "name": "transferFrom",
      "outputs": [],
      "stateMutability": "nonpayable",
      "type": "function"
    },
    {
      "inputs": [
        {
          "internalType": "address",
          "name": "newOwner",
          "type": "address"
        }
      ],
      "name": "transferOwnership",
      "outputs": [],
      "stateMutability": "nonpayable",
      "type": "function"
    },
    {
      "inputs": [
        {
          "components": [
            {
              "components": [
                {
                  "internalType": "uint256",
                  "name": "X",
                  "type": "uint256"
                },
                {
                  "internalType": "uint256",
                  "name": "Y",
                  "type": "uint256"
                }
              ],
              "internalType": "struct Pairing.G1Point",
              "name": "a",
              "type": "tuple"
            },
            {
              "components": [
                {
                  "internalType": "uint256[2]",
                  "name": "X",
                  "type": "uint256[2]"
                },
                {
                  "internalType": "uint256[2]",
                  "name": "Y",
                  "type": "uint256[2]"
                }
              ],
              "internalType": "struct Pairing.G2Point",
              "name": "b",
              "type": "tuple"
            },
            {
              "components": [
                {
                  "internalType": "uint256",
                  "name": "X",
                  "type": "uint256"
                },
                {
                  "internalType": "uint256",
                  "name": "Y",
                  "type": "uint256"
                }
              ],
              "internalType": "struct Pairing.G1Point",
              "name": "c",
              "type": "tuple"
            }
          ],
          "internalType": "struct Verifier.Proof",
          "name": "proof",
          "type": "tuple"
        },
        {
          "internalType": "uint256[2]",
          "name": "input",
          "type": "uint256[2]"
        }
      ],
      "name": "verifyTx",
      "outputs": [
        {
          "internalType": "bool",
          "name": "r",
          "type": "bool"
        }
      ],
      "stateMutability": "view",
      "type": "function",
      "constant": true
    },
    {
      "inputs": [],
      "name": "viewOwner",
      "outputs": [
        {
          "internalType": "address",
          "name": "",
          "type": "address"
        }
      ],
      "stateMutability": "view",
      "type": "function",
      "constant": true
    },
    {
      "inputs": [
        {
          "internalType": "uint256[2]",
          "name": "A",
          "type": "uint256[2]"
        },
        {
          "internalType": "uint256[2]",
          "name": "A_p",
          "type": "uint256[2]"
        },
        {
          "internalType": "uint256[2][2]",
          "name": "B",
          "type": "uint256[2][2]"
        },
        {
          "internalType": "uint256[2]",
          "name": "B_p",
          "type": "uint256[2]"
        },
        {
          "internalType": "uint256[2]",
          "name": "C",
          "type": "uint256[2]"
        },
        {
          "internalType": "uint256[2]",
          "name": "C_p",
          "type": "uint256[2]"
        },
        {
          "internalType": "uint256[2]",
          "name": "H",
          "type": "uint256[2]"
        },
        {
          "internalType": "uint256[2]",
          "name": "K",
          "type": "uint256[2]"
        },
        {
          "internalType": "uint256[2]",
          "name": "input",
          "type": "uint256[2]"
        }
      ],
      "name": "addSolution",
      "outputs": [],
      "stateMutability": "nonpayable",
      "type": "function"
    },
    {
      "inputs": [
        {
          "internalType": "uint256",
          "name": "a",
          "type": "uint256"
        },
        {
          "internalType": "uint256",
          "name": "b",
          "type": "uint256"
        },
        {
          "internalType": "address",
          "name": "to",
          "type": "address"
        }
      ],
      "name": "mintVerified",
      "outputs": [
        {
          "internalType": "bool",
          "name": "",
          "type": "bool"
        }
      ],
      "stateMutability": "nonpayable",
      "type": "function"
    }
  ],
  "bytecode": "0x608060405260006015553480156200001657600080fd5b5060405162004e9e38038062004e9e83398181016040528101906200003c919062000459565b818181816040518060600160405280603f815260200162004e5f603f9139336000806101000a81548173ffffffffffffffffffffffffffffffffffffffff021916908373ffffffffffffffffffffffffffffffffffffffff160217905550620000b26301ffc9a760e01b6200016c60201b60201c565b60008060146101000a81548160ff021916908315150217905550620000e46380ac58cd60e01b6200016c60201b60201c565b620000fc63780e9d6360e01b6200016c60201b60201c565b82600f9080519060200190620001149291906200020c565b5081601090805190602001906200012d9291906200020c565b508060119080519060200190620001469291906200020c565b506200015f635b5e139f60e01b6200016c60201b60201c565b5050505050505062000543565b63ffffffff60e01b817bffffffffffffffffffffffffffffffffffffffffffffffffffffffff19161415620001a057600080fd5b6001806000837bffffffffffffffffffffffffffffffffffffffffffffffffffffffff19167bffffffffffffffffffffffffffffffffffffffffffffffffffffffff1916815260200190815260200160002060006101000a81548160ff02191690831515021790555050565b8280546200021a906200050d565b90600052602060002090601f0160209004810192826200023e57600085556200028a565b82601f106200025957805160ff19168380011785556200028a565b828001600101855582156200028a579182015b82811115620002895782518255916020019190600101906200026c565b5b5090506200029991906200029d565b5090565b5b80821115620002b85760008160009055506001016200029e565b5090565b6000604051905090565b600080fd5b600080fd5b600080fd5b600080fd5b6000601f19601f8301169050919050565b7f4e487b7100000000000000000000000000000000000000000000000000000000600052604160045260246000fd5b6200032582620002da565b810181811067ffffffffffffffff82111715620003475762000346620002eb565b5b80604052505050565b60006200035c620002bc565b90506200036a82826200031a565b919050565b600067ffffffffffffffff8211156200038d576200038c620002eb565b5b6200039882620002da565b9050602081019050919050565b60005b83811015620003c5578082015181840152602081019050620003a8565b83811115620003d5576000848401525b50505050565b6000620003f2620003ec846200036f565b62000350565b905082815260208101848484011115620004115762000410620002d5565b5b6200041e848285620003a5565b509392505050565b600082601f8301126200043e576200043d620002d0565b5b815162000450848260208601620003db565b91505092915050565b60008060408385031215620004735762000472620002c6565b5b600083015167ffffffffffffffff811115620004945762000493620002cb565b5b620004a28582860162000426565b925050602083015167ffffffffffffffff811115620004c657620004c5620002cb565b5b620004d48582860162000426565b9150509250929050565b7f4e487b7100000000000000000000000000000000000000000000000000000000600052602260045260246000fd5b600060028204905060018216806200052657607f821691505b602082108114156200053d576200053c620004de565b5b50919050565b61490c80620005536000396000f3fe608060405234801561001057600080fd5b506004361061018e5760003560e01c80634f6ccce7116100de578063b88d4fde11610097578063c87b56dd11610071578063c87b56dd146104b9578063e985e9c5146104e9578063ed93b13b14610519578063f2fde38b146105355761018e565b8063b88d4fde14610461578063bc677b461461047d578063bdc32be01461049b5761018e565b80634f6ccce7146103695780635361987c146103995780635a50ec51146103c95780636352211e146103e557806370a0823114610415578063a22cb465146104455761018e565b806323b872dd1161014b57806338bbfa501161012557806338bbfa50146102d157806340c10f19146102ed57806342842e0e1461031d57806343cd76fc146103395761018e565b806323b872dd1461026957806327dc297e146102855780632f745c59146102a15761018e565b806301ffc9a714610193578063081812fc146101c3578063095ea7b3146101f3578063150704011461020f57806317d7de7c1461022d57806318160ddd1461024b575b600080fd5b6101ad60048036038101906101a8919061347d565b610551565b6040516101ba91906134c5565b60405180910390f35b6101dd60048036038101906101d89190613516565b6105b9565b6040516101ea9190613584565b60405180910390f35b61020d600480360381019061020891906135cb565b6105fb565b005b6102176107c7565b60405161022491906136a4565b60405180910390f35b610235610859565b60405161024291906136a4565b60405180910390f35b6102536108eb565b60405161026091906136d5565b60405180910390f35b610283600480360381019061027e91906136f0565b6108f8565b005b61029f600480360381019061029a91906138ae565b61091b565b005b6102bb60048036038101906102b691906135cb565b610977565b6040516102c891906136d5565b60405180910390f35b6102eb60048036038101906102e691906139ab565b6109f1565b005b610307600480360381019061030291906135cb565b6109f6565b60405161031491906134c5565b60405180910390f35b610337600480360381019061033291906136f0565b610ac4565b005b610353600480360381019061034e9190613bf6565b610ae4565b60405161036091906134c5565b60405180910390f35b610383600480360381019061037e9190613516565b610bb2565b60405161039091906136d5565b60405180910390f35b6103b360048036038101906103ae9190613c38565b610bed565b6040516103c091906134c5565b60405180910390f35b6103e360048036038101906103de9190613d3c565b610e27565b005b6103ff60048036038101906103fa9190613516565b6110a1565b60405161040c9190613584565b60405180910390f35b61042f600480360381019061042a9190613e0b565b6110e3565b60405161043c91906136d5565b60405180910390f35b61045f600480360381019061045a9190613e64565b611138565b005b61047b60048036038101906104769190613ea4565b61126e565b005b610485611294565b6040516104929190613584565b60405180910390f35b6104a36112bd565b6040516104b091906136a4565b60405180910390f35b6104d360048036038101906104ce9190613516565b61134f565b6040516104e091906136a4565b60405180910390f35b61050360048036038101906104fe9190613f27565b611406565b60405161051091906134c5565b60405180910390f35b610533600480360381019061052e9190613f67565b61149a565b005b61054f600480360381019061054a9190613e0b565b61150f565b005b600060016000837bffffffffffffffffffffffffffffffffffffffffffffffffffffffff19167bffffffffffffffffffffffffffffffffffffffffffffffffffffffff1916815260200190815260200160002060009054906101000a900460ff169050919050565b6000806003600084815260200190815260200160002060009054906101000a900473ffffffffffffffffffffffffffffffffffffffff16905080915050919050565b8173ffffffffffffffffffffffffffffffffffffffff1661061b826110a1565b73ffffffffffffffffffffffffffffffffffffffff161415610672576040517f08c379a000000000000000000000000000000000000000000000000000000000815260040161066990614006565b60405180910390fd5b3373ffffffffffffffffffffffffffffffffffffffff16610692826110a1565b73ffffffffffffffffffffffffffffffffffffffff1614806106c95750600115156106c56106bf836110a1565b33611406565b1515145b610708576040517f08c379a00000000000000000000000000000000000000000000000000000000081526004016106ff90614072565b60405180910390fd5b816003600083815260200190815260200160002060006101000a81548173ffffffffffffffffffffffffffffffffffffffff021916908373ffffffffffffffffffffffffffffffffffffffff1602179055506000610765826110a1565b9050818373ffffffffffffffffffffffffffffffffffffffff168273ffffffffffffffffffffffffffffffffffffffff167f8c5be1e5ebec7d5bd14f71427d1e84f3dd0314c0f7b2291e5b200ac8c7c3b92560405160405180910390a4505050565b6060601080546107d6906140c1565b80601f0160208091040260200160405190810160405280929190818152602001828054610802906140c1565b801561084f5780601f106108245761010080835404028352916020019161084f565b820191906000526020600020905b81548152906001019060200180831161083257829003601f168201915b5050505050905090565b6060600f8054610868906140c1565b80601f0160208091040260200160405190810160405280929190818152602001828054610894906140c1565b80156108e15780601f106108b6576101008083540402835291602001916108e1565b820191906000526020600020905b8154815290600101906020018083116108c457829003601f168201915b5050505050905090565b6000600880549050905090565b61090233826115aa565b61090b57600080fd5b610916838383611647565b505050565b6109738282600067ffffffffffffffff81111561093b5761093a613783565b5b6040519080825280601f01601f19166020018201604052801561096d5781602001600182028036833780820191505090505b506109f1565b5050565b6000610982836110e3565b821061098d57600080fd5b600660008473ffffffffffffffffffffffffffffffffffffffff1673ffffffffffffffffffffffffffffffffffffffff16815260200190815260200160002082815481106109de576109dd6140f3565b5b9060005260206000200154905092915050565b505050565b60008060009054906101000a900473ffffffffffffffffffffffffffffffffffffffff1673ffffffffffffffffffffffffffffffffffffffff163373ffffffffffffffffffffffffffffffffffffffff1614610a5157600080fd5b60001515600060149054906101000a900460ff16151514610aa7576040517f08c379a0000000000000000000000000000000000000000000000000000000008152600401610a9e9061416e565b60405180910390fd5b610ab1838361166b565b610aba8261168c565b6001905092915050565b610adf8383836040518060200160405280600081525061126e565b505050565b600080600267ffffffffffffffff811115610b0257610b01613783565b5b604051908082528060200260200182016040528015610b305781602001602082028036833780820191505090505b50905060005b6002811015610b8957838160028110610b5257610b516140f3565b5b6020020151828281518110610b6a57610b696140f3565b5b6020026020010181815250508080610b81906141bd565b915050610b36565b506000610b96828661179a565b1415610ba6576001915050610bac565b60009150505b92915050565b6000610bbc6108eb565b8210610bc757600080fd5b60088281548110610bdb57610bda6140f3565b5b90600052602060002001549050919050565b6000808484604051602001610c03929190614227565b604051602081830303815290604052805190602001209050600073ffffffffffffffffffffffffffffffffffffffff166014600083815260200190815260200160002060010160009054906101000a900473ffffffffffffffffffffffffffffffffffffffff1673ffffffffffffffffffffffffffffffffffffffff161415610cc1576040517f08c379a0000000000000000000000000000000000000000000000000000000008152600401610cb89061429f565b60405180910390fd5b600015156014600083815260200190815260200160002060010160149054906101000a900460ff16151514610d2b576040517f08c379a0000000000000000000000000000000000000000000000000000000008152600401610d2290614331565b60405180910390fd5b3373ffffffffffffffffffffffffffffffffffffffff166014600083815260200190815260200160002060010160009054906101000a900473ffffffffffffffffffffffffffffffffffffffff1673ffffffffffffffffffffffffffffffffffffffff1614610dcf576040517f08c379a0000000000000000000000000000000000000000000000000000000008152600401610dc6906143c3565b60405180910390fd5b610def8360146000848152602001908152602001600020600001546109f6565b5060016014600083815260200190815260200160002060010160146101000a81548160ff021916908315150217905550509392505050565b600081600060028110610e3d57610e3c6140f3565b5b602002015182600160028110610e5657610e556140f3565b5b6020020151604051602001610e6c929190614227565b604051602081830303815290604052805190602001209050600073ffffffffffffffffffffffffffffffffffffffff166014600083815260200190815260200160002060010160009054906101000a900473ffffffffffffffffffffffffffffffffffffffff1673ffffffffffffffffffffffffffffffffffffffff1614610f29576040517f08c379a0000000000000000000000000000000000000000000000000000000008152600401610f209061442f565b60405180910390fd5b60006001905080610f6f576040517f08c379a0000000000000000000000000000000000000000000000000000000008152600401610f669061449b565b60405180910390fd5b604051806060016040528060155481526020013373ffffffffffffffffffffffffffffffffffffffff16815260200160001515815250601460008481526020019081526020016000206000820151816000015560208201518160010160006101000a81548173ffffffffffffffffffffffffffffffffffffffff021916908373ffffffffffffffffffffffffffffffffffffffff16021790555060408201518160010160146101000a81548160ff0219169083151502179055509050503373ffffffffffffffffffffffffffffffffffffffff167f078793128cefb19aac38a33f9e5df39f67716907f6d747e8065545699e0b2b8d60155460405161107491906136d5565b60405180910390a26015600081548092919061108f906141bd565b91905055505050505050505050505050565b6000806002600084815260200190815260200160002060009054906101000a900473ffffffffffffffffffffffffffffffffffffffff16905080915050919050565b60008061112d600460008573ffffffffffffffffffffffffffffffffffffffff1673ffffffffffffffffffffffffffffffffffffffff168152602001908152602001600020611931565b905080915050919050565b3373ffffffffffffffffffffffffffffffffffffffff168273ffffffffffffffffffffffffffffffffffffffff16141561117157600080fd5b80600560003373ffffffffffffffffffffffffffffffffffffffff1673ffffffffffffffffffffffffffffffffffffffff16815260200190815260200160002060008473ffffffffffffffffffffffffffffffffffffffff1673ffffffffffffffffffffffffffffffffffffffff16815260200190815260200160002060006101000a81548160ff0219169083151502179055508173ffffffffffffffffffffffffffffffffffffffff163373ffffffffffffffffffffffffffffffffffffffff167f17307eab39ab6107e8899845ad3d59bd9653f200f220920489ca2b5937696c318360405161126291906134c5565b60405180910390a35050565b6112798484846108f8565b6112858484848461193f565b61128e57600080fd5b50505050565b60008060009054906101000a900473ffffffffffffffffffffffffffffffffffffffff16905090565b6060601180546112cc906140c1565b80601f01602080910402602001604051908101604052809291908181526020018280546112f8906140c1565b80156113455780601f1061131a57610100808354040283529160200191611345565b820191906000526020600020905b81548152906001019060200180831161132857829003601f168201915b5050505050905090565b606061135a82611a47565b61136357600080fd5b601260008381526020019081526020016000208054611381906140c1565b80601f01602080910402602001604051908101604052809291908181526020018280546113ad906140c1565b80156113fa5780601f106113cf576101008083540402835291602001916113fa565b820191906000526020600020905b8154815290600101906020018083116113dd57829003601f168201915b50505050509050919050565b6000600560008473ffffffffffffffffffffffffffffffffffffffff1673ffffffffffffffffffffffffffffffffffffffff16815260200190815260200160002060008373ffffffffffffffffffffffffffffffffffffffff1673ffffffffffffffffffffffffffffffffffffffff16815260200190815260200160002060009054906101000a900460ff16905092915050565b60008054906101000a900473ffffffffffffffffffffffffffffffffffffffff1673ffffffffffffffffffffffffffffffffffffffff163373ffffffffffffffffffffffffffffffffffffffff16146114f257600080fd5b80600060146101000a81548160ff02191690831515021790555050565b60008054906101000a900473ffffffffffffffffffffffffffffffffffffffff1673ffffffffffffffffffffffffffffffffffffffff163373ffffffffffffffffffffffffffffffffffffffff161461156757600080fd5b806000806101000a81548173ffffffffffffffffffffffffffffffffffffffff021916908373ffffffffffffffffffffffffffffffffffffffff16021790555050565b6000806115b6836110a1565b90508073ffffffffffffffffffffffffffffffffffffffff168473ffffffffffffffffffffffffffffffffffffffff16148061162557508373ffffffffffffffffffffffffffffffffffffffff1661160d846105b9565b73ffffffffffffffffffffffffffffffffffffffff16145b8061163e575061163d611637846110a1565b85611406565b5b91505092915050565b611652838383611ab9565b61165c8382611ca1565b6116668282611e58565b505050565b6116758282611f1c565b61167f8282611e58565b61168881612027565b5050565b61169581611a47565b6116d4576040517f08c379a00000000000000000000000000000000000000000000000000000000081526004016116cb90614507565b60405180910390fd5b611770601180546116e4906140c1565b80601f0160208091040260200160405190810160405280929190818152602001828054611710906140c1565b801561175d5780601f106117325761010080835404028352916020019161175d565b820191906000526020600020905b81548152906001019060200180831161174057829003601f168201915b505050505061176b83612070565b6121ec565b60126000838152602001908152602001600020908051906020019061179692919061325f565b5050565b6000807f30644e72e131a029b85045b68181585d2833e84879b9709143e1f593f0000001905060006117ca612230565b9050806080015151600186516117e09190614527565b146117ea57600080fd5b60006040518060400160405280600081526020016000815250905060005b86518110156118a35783878281518110611825576118246140f3565b5b60200260200101511061183757600080fd5b61188e8261188985608001516001856118509190614527565b81518110611861576118606140f3565b5b60200260200101518a858151811061187c5761187b6140f3565b5b60200260200101516126ac565b612753565b9150808061189b906141bd565b915050611808565b506118cd8183608001516000815181106118c0576118bf6140f3565b5b6020026020010151612753565b9050611913856000015186602001516118e584612820565b85604001516118f78a60400151612820565b87606001516119098960000151612820565b89602001516128c5565b611923576001935050505061192b565b600093505050505b92915050565b600081600001549050919050565b60006119608473ffffffffffffffffffffffffffffffffffffffff16612a92565b61196d5760019050611a3f565b60008473ffffffffffffffffffffffffffffffffffffffff1663150b7a02338887876040518563ffffffff1660e01b81526004016119ae94939291906145d2565b6020604051808303816000875af11580156119cd573d6000803e3d6000fd5b505050506040513d601f19601f820116820180604052508101906119f19190614633565b905063150b7a0260e01b7bffffffffffffffffffffffffffffffffffffffffffffffffffffffff1916817bffffffffffffffffffffffffffffffffffffffffffffffffffffffff1916149150505b949350505050565b6000806002600084815260200190815260200160002060009054906101000a900473ffffffffffffffffffffffffffffffffffffffff169050600073ffffffffffffffffffffffffffffffffffffffff168173ffffffffffffffffffffffffffffffffffffffff161415915050919050565b8273ffffffffffffffffffffffffffffffffffffffff16611ad9826110a1565b73ffffffffffffffffffffffffffffffffffffffff1614611b2f576040517f08c379a0000000000000000000000000000000000000000000000000000000008152600401611b26906146d2565b60405180910390fd5b600073ffffffffffffffffffffffffffffffffffffffff168273ffffffffffffffffffffffffffffffffffffffff161415611b9f576040517f08c379a0000000000000000000000000000000000000000000000000000000008152600401611b969061473e565b60405180910390fd5b611ba881612ab5565b816002600083815260200190815260200160002060006101000a81548173ffffffffffffffffffffffffffffffffffffffff021916908373ffffffffffffffffffffffffffffffffffffffff160217905550611c41600460008473ffffffffffffffffffffffffffffffffffffffff1673ffffffffffffffffffffffffffffffffffffffff168152602001908152602001600020612b73565b808273ffffffffffffffffffffffffffffffffffffffff168473ffffffffffffffffffffffffffffffffffffffff167fddf252ad1be2c89b69c2b068fc378daa952ba7f163c4a11628f55a4df523b3ef60405160405180910390a4505050565b60006001600660008573ffffffffffffffffffffffffffffffffffffffff1673ffffffffffffffffffffffffffffffffffffffff16815260200190815260200160002080549050611cf2919061475e565b9050600060076000848152602001908152602001600020549050818114611ded576000600660008673ffffffffffffffffffffffffffffffffffffffff1673ffffffffffffffffffffffffffffffffffffffff1681526020019081526020016000208381548110611d6657611d656140f3565b5b9060005260206000200154905080600660008773ffffffffffffffffffffffffffffffffffffffff1673ffffffffffffffffffffffffffffffffffffffff1681526020019081526020016000208381548110611dc557611dc46140f3565b5b9060005260206000200181905550816007600083815260200190815260200160002081905550505b600660008573ffffffffffffffffffffffffffffffffffffffff1673ffffffffffffffffffffffffffffffffffffffff168152602001908152602001600020805480611e3c57611e3b614792565b5b6001900381819060005260206000200160009055905550505050565b600660008373ffffffffffffffffffffffffffffffffffffffff1673ffffffffffffffffffffffffffffffffffffffff168152602001908152602001600020805490506007600083815260200190815260200160002081905550600660008373ffffffffffffffffffffffffffffffffffffffff1673ffffffffffffffffffffffffffffffffffffffff1681526020019081526020016000208190806001815401808255809150506001900390600052602060002001600090919091909150555050565b611f2581611a47565b15611f2f57600080fd5b816002600083815260200190815260200160002060006101000a81548173ffffffffffffffffffffffffffffffffffffffff021916908373ffffffffffffffffffffffffffffffffffffffff160217905550611fc8600460008473ffffffffffffffffffffffffffffffffffffffff1673ffffffffffffffffffffffffffffffffffffffff168152602001908152602001600020612b73565b808273ffffffffffffffffffffffffffffffffffffffff163373ffffffffffffffffffffffffffffffffffffffff167fddf252ad1be2c89b69c2b068fc378daa952ba7f163c4a11628f55a4df523b3ef60405160405180910390a45050565b6008805490506009600083815260200190815260200160002081905550600881908060018154018082558091505060019003906000526020600020016000909190919091505550565b606060008214156120b8576040518060400160405280600181526020017f300000000000000000000000000000000000000000000000000000000000000081525090506121e7565b600082905060005b600082146120ea5780806120d3906141bd565b915050600a826120e391906147f0565b91506120c0565b60008167ffffffffffffffff81111561210657612105613783565b5b6040519080825280601f01601f1916602001820160405280156121385781602001600182028036833780820191505090505b509050600060018361214a919061475e565b90505b600086146121df57600a866121629190614821565b603061216e9190614527565b60f81b828281518110612184576121836140f3565b5b60200101907effffffffffffffffffffffffffffffffffffffffffffffffffffffffffffff1916908160001a905350600a866121c091906147f0565b955060008111156121da5780806121d690614852565b9150505b61214d565b819450505050505b919050565b60606122288383604051806020016040528060008152506040518060200160405280600081525060405180602001604052806000815250612b89565b905092915050565b6122386132e5565b60405180604001604052807f06fcbeb121eff91f051964954c336d4fa53dbd1b13fc138c567ca4b90ad4e94381526020017f21463ef7e0821276448eec0cd136579e691cb2cdf5c76d7889adba73eef6b24a8152508160000181905250604051806040016040528060405180604001604052807f13def9f09dc31a6c6abeae850f335a41370ee465b42fd1401cacd6adf880c6ae81526020017f26a10daf9a0b2e7e52e5db502a28f687db0201d4ccad3e2d9c2285dc2f490ed5815250815260200160405180604001604052807f1a422b45c272d68809878f2bf9b007eaeb3a480fe62b2a8025efe195f559661f81526020017f0998825aaecc807090591c260e98b599444c836b94e954ee780021bf7c12c99b8152508152508160200181905250604051806040016040528060405180604001604052807f0c1f31005b6088853d87e8f5528414944ec82a00d7e90c39df0be0b3f2e4bb2d81526020017f248c8dfe2aea698dcd82aa188c575429a8ef9feec31976270dc22684b13503d0815250815260200160405180604001604052807f2e0ea8391a29aadca5c46aa440e15a2d1ac4349b0d750b5262b073c7c924377981526020017f12b0637d86efa9959b48c7cd3733428dd36eac2f44934074c836d8cbcef7ccfc8152508152508160400181905250604051806040016040528060405180604001604052807f07615a4c5a2ccdeb7391b25af4766bd6cfcea515e278e5106fb9d5b8b583ea2081526020017f139905e892ad0d6aa9dedc28d1483a141819536bf72d5202ddaf0baacb331b13815250815260200160405180604001604052807f23b1ad7d65b8a5cc03c2e81d5968cf5abb38abc0d9fce8caac5a3e2e662ddce881526020017f0251650518512eeee2daad234d73cfb3c81ddd268d60d702a45d3a45b6dd63f28152508152508160600181905250600367ffffffffffffffff8111156124ff576124fe613783565b5b60405190808252806020026020018201604052801561253857816020015b61252561332c565b81526020019060019003908161251d5790505b50816080018190525060405180604001604052807f083025351dbcd430d90e4978173a31db72672ec69e6e1e0f12b4271b65beb0e881526020017f173b1ac2909ba86f6815a9e2e449adf1a0b331aa34baed42b1a47d6947f8675e81525081608001516000815181106125ae576125ad6140f3565b5b602002602001018190525060405180604001604052807f130effd37725b12293534d64ed760da15430d87a4b392c8a6fca9f3456251ba781526020017f19461eea0f3f0e3af8f2368f928fe7a580187764bf4eb2641c6cd06780fa4bc28152508160800151600181518110612626576126256140f3565b5b602002602001018190525060405180604001604052807f0e43ae774b0cfe30f5c8e4e528970e6124043aeaf14f5d87917eb73399f9308581526020017f2eaa3d370a61ee480a0ba80351b9f7b25c84b996c3e4c33c8a0090cbb88ce924815250816080015160028151811061269e5761269d6140f3565b5b602002602001018190525090565b6126b461332c565b6126bc613346565b8360000151816000600381106126d5576126d46140f3565b5b6020020181815250508360200151816001600381106126f7576126f66140f3565b5b6020020181815250508281600260038110612715576127146140f3565b5b602002018181525050600060608360808460076107d05a03fa9050806000811461273e57612740565bfe5b508061274b57600080fd5b505092915050565b61275b61332c565b612763613368565b83600001518160006004811061277c5761277b6140f3565b5b60200201818152505083602001518160016004811061279e5761279d6140f3565b5b6020020181815250508260000151816002600481106127c0576127bf6140f3565b5b6020020181815250508260200151816003600481106127e2576127e16140f3565b5b602002018181525050600060608360c08460066107d05a03fa9050806000811461280b5761280d565bfe5b508061281857600080fd5b505092915050565b61282861332c565b60007f30644e72e131a029b85045b68181585d97816a916871ca8d3c208c16d87cfd47905060008360000151148015612865575060008360200151145b156128895760405180604001604052806000815260200160008152509150506128c0565b6040518060400160405280846000015181526020018285602001516128ae9190614821565b836128b9919061475e565b8152509150505b919050565b600080600467ffffffffffffffff8111156128e3576128e2613783565b5b60405190808252806020026020018201604052801561291c57816020015b61290961332c565b8152602001906001900390816129015790505b5090506000600467ffffffffffffffff81111561293c5761293b613783565b5b60405190808252806020026020018201604052801561297557816020015b61296261338a565b81526020019060019003908161295a5790505b5090508a8260008151811061298d5761298c6140f3565b5b602002602001018190525088826001815181106129ad576129ac6140f3565b5b602002602001018190525086826002815181106129cd576129cc6140f3565b5b602002602001018190525084826003815181106129ed576129ec6140f3565b5b60200260200101819052508981600081518110612a0d57612a0c6140f3565b5b60200260200101819052508781600181518110612a2d57612a2c6140f3565b5b60200260200101819052508581600281518110612a4d57612a4c6140f3565b5b60200260200101819052508381600381518110612a6d57612a6c6140f3565b5b6020026020010181905250612a828282612f04565b9250505098975050505050505050565b6000808273ffffffffffffffffffffffffffffffffffffffff163b119050919050565b600073ffffffffffffffffffffffffffffffffffffffff166003600083815260200190815260200160002060009054906101000a900473ffffffffffffffffffffffffffffffffffffffff1673ffffffffffffffffffffffffffffffffffffffff1614612b705760006003600083815260200190815260200160002060006101000a81548173ffffffffffffffffffffffffffffffffffffffff021916908373ffffffffffffffffffffffffffffffffffffffff1602179055505b50565b6001816000016000828254019250508190555050565b606060008690506000869050600086905060008690506000869050600081518351855187518951612bba9190614527565b612bc49190614527565b612bce9190614527565b612bd89190614527565b67ffffffffffffffff811115612bf157612bf0613783565b5b6040519080825280601f01601f191660200182016040528015612c235781602001600182028036833780820191505090505b5090506000819050600080600090505b8851811015612cbb57888181518110612c4f57612c4e6140f3565b5b602001015160f81c60f81b838380612c66906141bd565b945081518110612c7957612c786140f3565b5b60200101907effffffffffffffffffffffffffffffffffffffffffffffffffffffffffffff1916908160001a9053508080612cb3906141bd565b915050612c33565b600090505b8751811015612d4857878181518110612cdc57612cdb6140f3565b5b602001015160f81c60f81b838380612cf3906141bd565b945081518110612d0657612d056140f3565b5b60200101907effffffffffffffffffffffffffffffffffffffffffffffffffffffffffffff1916908160001a9053508080612d40906141bd565b915050612cc0565b600090505b8651811015612dd557868181518110612d6957612d686140f3565b5b602001015160f81c60f81b838380612d80906141bd565b945081518110612d9357612d926140f3565b5b60200101907effffffffffffffffffffffffffffffffffffffffffffffffffffffffffffff1916908160001a9053508080612dcd906141bd565b915050612d4d565b600090505b8551811015612e6257858181518110612df657612df56140f3565b5b602001015160f81c60f81b838380612e0d906141bd565b945081518110612e2057612e1f6140f3565b5b60200101907effffffffffffffffffffffffffffffffffffffffffffffffffffffffffffff1916908160001a9053508080612e5a906141bd565b915050612dda565b600090505b8451811015612eef57848181518110612e8357612e826140f3565b5b602001015160f81c60f81b838380612e9a906141bd565b945081518110612ead57612eac6140f3565b5b60200101907effffffffffffffffffffffffffffffffffffffffffffffffffffffffffffff1916908160001a9053508080612ee7906141bd565b915050612e67565b82995050505050505050505095945050505050565b60008151835114612f1457600080fd5b6000835190506000600682612f29919061487c565b905060008167ffffffffffffffff811115612f4757612f46613783565b5b604051908082528060200260200182016040528015612f755781602001602082028036833780820191505090505b50905060005b838110156131fa57868181518110612f9657612f956140f3565b5b602002602001015160000151826000600684612fb2919061487c565b612fbc9190614527565b81518110612fcd57612fcc6140f3565b5b602002602001018181525050868181518110612fec57612feb6140f3565b5b602002602001015160200151826001600684613008919061487c565b6130129190614527565b81518110613023576130226140f3565b5b602002602001018181525050858181518110613042576130416140f3565b5b602002602001015160000151600160028110613061576130606140f3565b5b6020020151826002600684613076919061487c565b6130809190614527565b81518110613091576130906140f3565b5b6020026020010181815250508581815181106130b0576130af6140f3565b5b6020026020010151600001516000600281106130cf576130ce6140f3565b5b60200201518260036006846130e4919061487c565b6130ee9190614527565b815181106130ff576130fe6140f3565b5b60200260200101818152505085818151811061311e5761311d6140f3565b5b60200260200101516020015160016002811061313d5761313c6140f3565b5b6020020151826004600684613152919061487c565b61315c9190614527565b8151811061316d5761316c6140f3565b5b60200260200101818152505085818151811061318c5761318b6140f3565b5b6020026020010151602001516000600281106131ab576131aa6140f3565b5b60200201518260056006846131c0919061487c565b6131ca9190614527565b815181106131db576131da6140f3565b5b60200260200101818152505080806131f2906141bd565b915050612f7b565b506132036133b0565b6000602082602086026020860160086107d05a03fa905080600081146132285761322a565bfe5b508061323557600080fd5b60008260006001811061324b5761324a6140f3565b5b602002015114159550505050505092915050565b82805461326b906140c1565b90600052602060002090601f01602090048101928261328d57600085556132d4565b82601f106132a657805160ff19168380011785556132d4565b828001600101855582156132d4579182015b828111156132d35782518255916020019190600101906132b8565b5b5090506132e191906133d2565b5090565b6040518060a001604052806132f861332c565b815260200161330561338a565b815260200161331261338a565b815260200161331f61338a565b8152602001606081525090565b604051806040016040528060008152602001600081525090565b6040518060600160405280600390602082028036833780820191505090505090565b6040518060800160405280600490602082028036833780820191505090505090565b604051806040016040528061339d6133ef565b81526020016133aa6133ef565b81525090565b6040518060200160405280600190602082028036833780820191505090505090565b5b808211156133eb5760008160009055506001016133d3565b5090565b6040518060400160405280600290602082028036833780820191505090505090565b6000604051905090565b600080fd5b600080fd5b60007fffffffff0000000000000000000000000000000000000000000000000000000082169050919050565b61345a81613425565b811461346557600080fd5b50565b60008135905061347781613451565b92915050565b6000602082840312156134935761349261341b565b5b60006134a184828501613468565b91505092915050565b60008115159050919050565b6134bf816134aa565b82525050565b60006020820190506134da60008301846134b6565b92915050565b6000819050919050565b6134f3816134e0565b81146134fe57600080fd5b50565b600081359050613510816134ea565b92915050565b60006020828403121561352c5761352b61341b565b5b600061353a84828501613501565b91505092915050565b600073ffffffffffffffffffffffffffffffffffffffff82169050919050565b600061356e82613543565b9050919050565b61357e81613563565b82525050565b60006020820190506135996000830184613575565b92915050565b6135a881613563565b81146135b357600080fd5b50565b6000813590506135c58161359f565b92915050565b600080604083850312156135e2576135e161341b565b5b60006135f0858286016135b6565b925050602061360185828601613501565b9150509250929050565b600081519050919050565b600082825260208201905092915050565b60005b8381101561364557808201518184015260208101905061362a565b83811115613654576000848401525b50505050565b6000601f19601f8301169050919050565b60006136768261360b565b6136808185613616565b9350613690818560208601613627565b6136998161365a565b840191505092915050565b600060208201905081810360008301526136be818461366b565b905092915050565b6136cf816134e0565b82525050565b60006020820190506136ea60008301846136c6565b92915050565b6000806000606084860312156137095761370861341b565b5b6000613717868287016135b6565b9350506020613728868287016135b6565b925050604061373986828701613501565b9150509250925092565b6000819050919050565b61375681613743565b811461376157600080fd5b50565b6000813590506137738161374d565b92915050565b600080fd5b600080fd5b7f4e487b7100000000000000000000000000000000000000000000000000000000600052604160045260246000fd5b6137bb8261365a565b810181811067ffffffffffffffff821117156137da576137d9613783565b5b80604052505050565b60006137ed613411565b90506137f982826137b2565b919050565b600067ffffffffffffffff82111561381957613818613783565b5b6138228261365a565b9050602081019050919050565b82818337600083830152505050565b600061385161384c846137fe565b6137e3565b90508281526020810184848401111561386d5761386c61377e565b5b61387884828561382f565b509392505050565b600082601f83011261389557613894613779565b5b81356138a584826020860161383e565b91505092915050565b600080604083850312156138c5576138c461341b565b5b60006138d385828601613764565b925050602083013567ffffffffffffffff8111156138f4576138f3613420565b5b61390085828601613880565b9150509250929050565b600067ffffffffffffffff82111561392557613924613783565b5b61392e8261365a565b9050602081019050919050565b600061394e6139498461390a565b6137e3565b90508281526020810184848401111561396a5761396961377e565b5b61397584828561382f565b509392505050565b600082601f83011261399257613991613779565b5b81356139a284826020860161393b565b91505092915050565b6000806000606084860312156139c4576139c361341b565b5b60006139d286828701613764565b935050602084013567ffffffffffffffff8111156139f3576139f2613420565b5b6139ff86828701613880565b925050604084013567ffffffffffffffff811115613a2057613a1f613420565b5b613a2c8682870161397d565b9150509250925092565b600080fd5b600060408284031215613a5157613a50613a36565b5b613a5b60406137e3565b90506000613a6b84828501613501565b6000830152506020613a7f84828501613501565b60208301525092915050565b600067ffffffffffffffff821115613aa657613aa5613783565b5b602082029050919050565b600080fd5b6000613ac9613ac484613a8b565b6137e3565b90508060208402830185811115613ae357613ae2613ab1565b5b835b81811015613b0c5780613af88882613501565b845260208401935050602081019050613ae5565b5050509392505050565b600082601f830112613b2b57613b2a613779565b5b6002613b38848285613ab6565b91505092915050565b600060808284031215613b5757613b56613a36565b5b613b6160406137e3565b90506000613b7184828501613b16565b6000830152506040613b8584828501613b16565b60208301525092915050565b60006101008284031215613ba857613ba7613a36565b5b613bb260606137e3565b90506000613bc284828501613a3b565b6000830152506040613bd684828501613b41565b60208301525060c0613bea84828501613a3b565b60408301525092915050565b6000806101408385031215613c0e57613c0d61341b565b5b6000613c1c85828601613b91565b925050610100613c2e85828601613b16565b9150509250929050565b600080600060608486031215613c5157613c5061341b565b5b6000613c5f86828701613501565b9350506020613c7086828701613501565b9250506040613c81868287016135b6565b9150509250925092565b600067ffffffffffffffff821115613ca657613ca5613783565b5b602082029050919050565b6000613cc4613cbf84613c8b565b6137e3565b90508060408402830185811115613cde57613cdd613ab1565b5b835b81811015613d075780613cf38882613b16565b845260208401935050604081019050613ce0565b5050509392505050565b600082601f830112613d2657613d25613779565b5b6002613d33848285613cb1565b91505092915050565b60008060008060008060008060006102808a8c031215613d5f57613d5e61341b565b5b6000613d6d8c828d01613b16565b9950506040613d7e8c828d01613b16565b9850506080613d8f8c828d01613d11565b975050610100613da18c828d01613b16565b965050610140613db38c828d01613b16565b955050610180613dc58c828d01613b16565b9450506101c0613dd78c828d01613b16565b935050610200613de98c828d01613b16565b925050610240613dfb8c828d01613b16565b9150509295985092959850929598565b600060208284031215613e2157613e2061341b565b5b6000613e2f848285016135b6565b91505092915050565b613e41816134aa565b8114613e4c57600080fd5b50565b600081359050613e5e81613e38565b92915050565b60008060408385031215613e7b57613e7a61341b565b5b6000613e89858286016135b6565b9250506020613e9a85828601613e4f565b9150509250929050565b60008060008060808587031215613ebe57613ebd61341b565b5b6000613ecc878288016135b6565b9450506020613edd878288016135b6565b9350506040613eee87828801613501565b925050606085013567ffffffffffffffff811115613f0f57613f0e613420565b5b613f1b8782880161397d565b91505092959194509250565b60008060408385031215613f3e57613f3d61341b565b5b6000613f4c858286016135b6565b9250506020613f5d858286016135b6565b9150509250929050565b600060208284031215613f7d57613f7c61341b565b5b6000613f8b84828501613e4f565b91505092915050565b7f74686520676976656e20616464726573732063616e206e6f742062652074686560008201527f206f776e6572206f662074686520746f6b656e49640000000000000000000000602082015250565b6000613ff0603583613616565b9150613ffb82613f94565b604082019050919050565b6000602082019050818103600083015261401f81613fe3565b9050919050565b7f46756e6374696f6e2063616c6c6572206973206e6f7420617070726f76656400600082015250565b600061405c601f83613616565b915061406782614026565b602082019050919050565b6000602082019050818103600083015261408b8161404f565b9050919050565b7f4e487b7100000000000000000000000000000000000000000000000000000000600052602260045260246000fd5b600060028204905060018216806140d957607f821691505b602082108114156140ed576140ec614092565b5b50919050565b7f4e487b7100000000000000000000000000000000000000000000000000000000600052603260045260246000fd5b7f7061757365640000000000000000000000000000000000000000000000000000600082015250565b6000614158600683613616565b915061416382614122565b602082019050919050565b600060208201905081810360008301526141878161414b565b9050919050565b7f4e487b7100000000000000000000000000000000000000000000000000000000600052601160045260246000fd5b60006141c8826134e0565b91507fffffffffffffffffffffffffffffffffffffffffffffffffffffffffffffffff8214156141fb576141fa61418e565b5b600182019050919050565b6000819050919050565b61422161421c826134e0565b614206565b82525050565b60006142338285614210565b6020820191506142438284614210565b6020820191508190509392505050565b7f536f6c7574696f6e20646f6573206e6f74206578697374000000000000000000600082015250565b6000614289601783613616565b915061429482614253565b602082019050919050565b600060208201905081810360008301526142b88161427c565b9050919050565b7f546f6b656e20616c7265616479206d696e74656420666f72207468697320736f60008201527f6c7574696f6e0000000000000000000000000000000000000000000000000000602082015250565b600061431b602683613616565b9150614326826142bf565b604082019050919050565b6000602082019050818103600083015261434a8161430e565b9050919050565b7f4f6e6c7920736f6c7574696f6e20616464726573732063616e2075736520697460008201527f20746f206d696e74206120746f6b656e00000000000000000000000000000000602082015250565b60006143ad603083613616565b91506143b882614351565b604082019050919050565b600060208201905081810360008301526143dc816143a0565b9050919050565b7f536f6c7574696f6e2065786973747320616c7265616479000000000000000000600082015250565b6000614419601783613616565b9150614424826143e3565b602082019050919050565b600060208201905081810360008301526144488161440c565b9050919050565b7f536f6c7574696f6e20636f756c64206e6f742062652076657269666965640000600082015250565b6000614485601e83613616565b91506144908261444f565b602082019050919050565b600060208201905081810360008301526144b481614478565b9050919050565b7f546f6b656e20646f6573206e6f74206578697374000000000000000000000000600082015250565b60006144f1601483613616565b91506144fc826144bb565b602082019050919050565b60006020820190508181036000830152614520816144e4565b9050919050565b6000614532826134e0565b915061453d836134e0565b9250827fffffffffffffffffffffffffffffffffffffffffffffffffffffffffffffffff038211156145725761457161418e565b5b828201905092915050565b600081519050919050565b600082825260208201905092915050565b60006145a48261457d565b6145ae8185614588565b93506145be818560208601613627565b6145c78161365a565b840191505092915050565b60006080820190506145e76000830187613575565b6145f46020830186613575565b61460160408301856136c6565b81810360608301526146138184614599565b905095945050505050565b60008151905061462d81613451565b92915050565b6000602082840312156146495761464861341b565b5b60006146578482850161461e565b91505092915050565b7f5468652066726f6d2061646472657373206973206e6f7420746865206f776e6560008201527f72206f662074686520746f6b656e000000000000000000000000000000000000602082015250565b60006146bc602e83613616565b91506146c782614660565b604082019050919050565b600060208201905081810360008301526146eb816146af565b9050919050565b7f54686520746f2061646472657373206973206e6f742076616c69640000000000600082015250565b6000614728601b83613616565b9150614733826146f2565b602082019050919050565b600060208201905081810360008301526147578161471b565b9050919050565b6000614769826134e0565b9150614774836134e0565b9250828210156147875761478661418e565b5b828203905092915050565b7f4e487b7100000000000000000000000000000000000000000000000000000000600052603160045260246000fd5b7f4e487b7100000000000000000000000000000000000000000000000000000000600052601260045260246000fd5b60006147fb826134e0565b9150614806836134e0565b925082614816576148156147c1565b5b828204905092915050565b600061482c826134e0565b9150614837836134e0565b925082614847576148466147c1565b5b828206905092915050565b600061485d826134e0565b915060008214156148715761487061418e565b5b600182039050919050565b6000614887826134e0565b9150614892836134e0565b9250817fffffffffffffffffffffffffffffffffffffffffffffffffffffffffffffffff04831182151516156148cb576148ca61418e565b5b82820290509291505056fea264697066735822122089204e2b25b86d49c08a04c205a5f159fade5c9e22b3579a8fdc2e18fc0327a564736f6c634300080b003368747470733a2f2f73332d75732d776573742d322e616d617a6f6e6177732e636f6d2f756461636974792d626c6f636b636861696e2f63617073746f6e652f",
  "immutableReferences": {},
  "source": "// SPDX-License-Identifier: MIT\npragma solidity ^0.8.11;\n\nimport './ERC721Mintable.sol';\nimport \"./Verifier.sol\";\n// TODO define a contract call to the zokrates generated solidity contract <Verifier> or <renamedVerifier>\n//interface Verifier{\n   // function verifyTx( uint[2] memory  a, uint[2] memory  a_p,  uint[2][2] memory  b, uint[2] memory  b_p, uint[2] memory  c,  uint[2] memory  c_p, uint[2] memory  h, uint[2] memory  k, uint[2] memory  input ) external returns (bool r) ;\n   // }\n\n\n// TODO define another contract named SolnSquareVerifier that inherits from your ERC721Mintable class\n\n contract SolnSquareVerifier is CustomERC721Token, Verifier{\n    //Verifier verifierContract;\n\n\n// TODO define a solutions struct that can hold an index & an address\n struct Solution {\n        uint256 solutionIndex;\n        address solutionAddress;\n        bool minted; \n    }\n\n// TODO define an array of the above struct\nSolution[] private solutionsArray;\n\n// TODO define a mapping to store unique solutions submitted\n\nmapping (bytes32 => Solution) solutions;\n\n constructor(\n     //address verifierAddress, \n     string memory name, \n     string memory symbol) \n        CustomERC721Token(name, symbol) \n    {\n     //verifierContract = Verifier(verifierAddress);\n    }\n\n\n//Solution Index\n uint256 solutionNumber = 0;\n// TODO Create an event to emit when a solution is added\nevent SolutionAdded(uint256 Index, address indexed Address);\n\n\n// TODO Create a function to add the solutions to the array and emit the event\n\nfunction addSolution( uint[2] memory A, uint[2] memory A_p, uint[2][2] memory B,uint[2] memory B_p, uint[2] memory C, uint[2] memory C_p, uint[2] memory H, uint[2] memory K, uint[2] memory input) \n        public \n    {\n        bytes32 Hash = keccak256(abi.encodePacked(input[0], input[1]));\n        require(solutions[Hash].solutionAddress == address(0), \"Solution exists already\");\n        \n        bool verified = true;\n        //verifyTx(A,  B,  C, input);\n        require(verified, \"Solution could not be verified\");\n\n        solutions[Hash] = Solution(solutionNumber, msg.sender, false);\n        //solutions.push(solution);\n        emit SolutionAdded(solutionNumber, msg.sender);\n        solutionNumber++;\n    }\n\n// TODO Create a function to mint new NFT only after the solution has been verified\n//  - make sure the solution is unique (has not been used before)\n//  - make sure you handle metadata as well as tokenSuplly\n\n function mintVerified( uint a, uint b, address to)  public returns (bool)\n    {\n        \n     bytes32 solutionsKey = keccak256(abi.encodePacked(a, b));\n    require(solutions[solutionsKey].solutionAddress != address(0), \"Solution does not exist\");\n        require(solutions[solutionsKey].minted == false, \"Token already minted for this solution\");\n        require(solutions[solutionsKey].solutionAddress == msg.sender, \"Only solution address can use it to mint a token\");\n        mint(to, solutions[solutionsKey].solutionIndex);\n        solutions[solutionsKey].minted = true;\n    }\n\n  \n }\n\n\n\n\n\n\n\n\n\n\n\n\n\n\n\n\n\n\n\n\n\n\n\n\n\n\n",
  "sourcePath": "/Users/eamonnmulhearne/projects/udacity_blockchain1/Blockchain-Capstone/eth-contracts/contracts/SolnSquareVerifier.sol",
  "compiler": {
    "name": "solc",
    "version": "0.8.11+commit.d7f03943.Emscripten.clang"
  },
  "schemaVersion": "3.4.5",
  "updatedAt": "2022-03-19T17:30:49.658Z",
  "networkType": "ethereum",
  "devdoc": {
    "kind": "dev",
    "methods": {
      "isApprovedForAll(address,address)": {
        "details": "Tells whether an operator is approved by a given owner",
        "params": {
          "operator": "operator address which you want to query the approval of",
          "owner": "owner address which you want to query the approval of"
        },
        "returns": {
          "_0": "bool whether the given operator is approved by the given owner"
        }
      },
      "setApprovalForAll(address,bool)": {
        "details": "Sets or unsets the approval of a given operator An operator is allowed to transfer all tokens of the sender on their behalf",
        "params": {
          "approved": "representing the status of the approval to be set",
          "to": "operator address to set the approval"
        }
      },
      "supportsInterface(bytes4)": {
        "details": "implement supportsInterface(bytes4) using a lookup table"
      },
      "tokenByIndex(uint256)": {
        "details": "Gets the token ID at a given index of all the tokens in this contract Reverts if the index is greater or equal to the total number of tokens",
        "params": {
          "index": "uint256 representing the index to be accessed of the tokens list"
        },
        "returns": {
          "_0": "uint256 token ID at the given index of the tokens list"
        }
      },
      "tokenOfOwnerByIndex(address,uint256)": {
        "details": "Gets the token ID at a given index of the tokens list of the requested owner",
        "params": {
          "index": "uint256 representing the index to be accessed of the requested tokens list",
          "owner": "address owning the tokens list to be accessed"
        },
        "returns": {
          "_0": "uint256 token ID at the given index of the tokens list owned by the requested address"
        }
      },
      "totalSupply()": {
        "details": "Gets the total amount of tokens stored by the contract",
        "returns": {
          "_0": "uint256 representing the total amount of tokens"
        }
      }
    },
    "version": 1
  },
  "userdoc": {
    "kind": "user",
    "methods": {},
    "version": 1
  }
}